{
	"PaymentSplit/PaymentSplit.sol": {
		"PaymentSplit": {
			"abi": [
				{
					"inputs": [
						{
							"internalType": "address[]",
							"name": "_payees",
							"type": "address[]"
						},
						{
							"internalType": "uint256[]",
							"name": "_shares",
							"type": "uint256[]"
						}
					],
					"stateMutability": "payable",
					"type": "constructor"
				},
				{
					"anonymous": false,
					"inputs": [
						{
							"indexed": false,
							"internalType": "address",
							"name": "account",
							"type": "address"
						},
						{
							"indexed": false,
							"internalType": "uint256",
							"name": "shares",
							"type": "uint256"
						}
					],
					"name": "PayeeAdded",
					"type": "event"
				},
				{
					"anonymous": false,
					"inputs": [
						{
							"indexed": false,
							"internalType": "address",
							"name": "from",
							"type": "address"
						},
						{
							"indexed": false,
							"internalType": "uint256",
							"name": "amount",
							"type": "uint256"
						}
					],
					"name": "PaymentReceived",
					"type": "event"
				},
				{
					"anonymous": false,
					"inputs": [
						{
							"indexed": false,
							"internalType": "address",
							"name": "to",
							"type": "address"
						},
						{
							"indexed": false,
							"internalType": "uint256",
							"name": "amount",
							"type": "uint256"
						}
					],
					"name": "PaymentReleased",
					"type": "event"
				},
				{
					"inputs": [
						{
							"internalType": "uint256",
							"name": "",
							"type": "uint256"
						}
					],
					"name": "payees",
					"outputs": [
						{
							"internalType": "address",
							"name": "",
							"type": "address"
						}
					],
					"stateMutability": "view",
					"type": "function"
				},
				{
					"inputs": [
						{
							"internalType": "address",
							"name": "_account",
							"type": "address"
						},
						{
							"internalType": "uint256",
							"name": "_totalReceived",
							"type": "uint256"
						},
						{
							"internalType": "uint256",
							"name": "_alreadyReleased",
							"type": "uint256"
						}
					],
					"name": "pendingPayment",
					"outputs": [
						{
							"internalType": "uint256",
							"name": "",
							"type": "uint256"
						}
					],
					"stateMutability": "view",
					"type": "function"
				},
				{
					"inputs": [
						{
							"internalType": "address",
							"name": "_account",
							"type": "address"
						}
					],
					"name": "releasable",
					"outputs": [
						{
							"internalType": "uint256",
							"name": "",
							"type": "uint256"
						}
					],
					"stateMutability": "view",
					"type": "function"
				},
				{
					"inputs": [
						{
							"internalType": "address payable",
							"name": "_account",
							"type": "address"
						}
					],
					"name": "release",
					"outputs": [],
					"stateMutability": "nonpayable",
					"type": "function"
				},
				{
					"inputs": [
						{
							"internalType": "address",
							"name": "",
							"type": "address"
						}
					],
					"name": "released",
					"outputs": [
						{
							"internalType": "uint256",
							"name": "",
							"type": "uint256"
						}
					],
					"stateMutability": "view",
					"type": "function"
				},
				{
					"inputs": [
						{
							"internalType": "address",
							"name": "",
							"type": "address"
						}
					],
					"name": "shares",
					"outputs": [
						{
							"internalType": "uint256",
							"name": "",
							"type": "uint256"
						}
					],
					"stateMutability": "view",
					"type": "function"
				},
				{
					"inputs": [],
					"name": "totalReleased",
					"outputs": [
						{
							"internalType": "uint256",
							"name": "",
							"type": "uint256"
						}
					],
					"stateMutability": "view",
					"type": "function"
				},
				{
					"inputs": [],
					"name": "totalShares",
					"outputs": [
						{
							"internalType": "uint256",
							"name": "",
							"type": "uint256"
						}
					],
					"stateMutability": "view",
					"type": "function"
				},
				{
					"stateMutability": "payable",
					"type": "receive"
				}
			],
			"devdoc": {
				"kind": "dev",
				"methods": {},
				"version": 1
			},
			"evm": {
				"assembly": "    /* \"PaymentSplit/PaymentSplit.sol\":61:3131  contract PaymentSplit{... */\n  mstore(0x40, 0x80)\n    /* \"PaymentSplit/PaymentSplit.sol\":1351:1686  constructor(address[] memory _payees, uint256[] memory _shares) payable {... */\n  mload(0x40)\n  sub(codesize, bytecodeSize)\n  dup1\n  bytecodeSize\n  dup4\n  codecopy\n  dup2\n  dup2\n  add\n  0x40\n  mstore\n  dup2\n  add\n  swap1\n  tag_1\n  swap2\n  swap1\n  tag_2\n  jump\t// in\ntag_1:\n    /* \"PaymentSplit/PaymentSplit.sol\":1460:1467  _shares */\n  dup1\n    /* \"PaymentSplit/PaymentSplit.sol\":1460:1474  _shares.length */\n  mload\n    /* \"PaymentSplit/PaymentSplit.sol\":1442:1449  _payees */\n  dup3\n    /* \"PaymentSplit/PaymentSplit.sol\":1442:1456  _payees.length */\n  mload\n    /* \"PaymentSplit/PaymentSplit.sol\":1442:1474  _payees.length == _shares.length */\n  eq\n    /* \"PaymentSplit/PaymentSplit.sol\":1434:1512  require(_payees.length == _shares.length, \"payees and shares length mismatch\") */\n  tag_5\n  jumpi\n  mload(0x40)\n  0x08c379a000000000000000000000000000000000000000000000000000000000\n  dup2\n  mstore\n  0x04\n  add\n  tag_6\n  swap1\n  tag_7\n  jump\t// in\ntag_6:\n  mload(0x40)\n  dup1\n  swap2\n  sub\n  swap1\n  revert\ntag_5:\n    /* \"PaymentSplit/PaymentSplit.sol\":1548:1549  0 */\n  0x00\n    /* \"PaymentSplit/PaymentSplit.sol\":1531:1538  _payees */\n  dup3\n    /* \"PaymentSplit/PaymentSplit.sol\":1531:1545  _payees.length */\n  mload\n    /* \"PaymentSplit/PaymentSplit.sol\":1531:1549  _payees.length > 0 */\n  gt\n    /* \"PaymentSplit/PaymentSplit.sol\":1523:1563  require(_payees.length > 0, \"no payees\") */\n  tag_8\n  jumpi\n  mload(0x40)\n  0x08c379a000000000000000000000000000000000000000000000000000000000\n  dup2\n  mstore\n  0x04\n  add\n  tag_9\n  swap1\n  tag_10\n  jump\t// in\ntag_9:\n  mload(0x40)\n  dup1\n  swap2\n  sub\n  swap1\n  revert\ntag_8:\n    /* \"PaymentSplit/PaymentSplit.sol\":1580:1589  uint256 i */\n  0x00\n    /* \"PaymentSplit/PaymentSplit.sol\":1576:1679  for(uint256 i = 0; i < _payees.length; i++){... */\ntag_11:\n    /* \"PaymentSplit/PaymentSplit.sol\":1599:1606  _payees */\n  dup3\n    /* \"PaymentSplit/PaymentSplit.sol\":1599:1613  _payees.length */\n  mload\n    /* \"PaymentSplit/PaymentSplit.sol\":1595:1596  i */\n  dup2\n    /* \"PaymentSplit/PaymentSplit.sol\":1595:1613  i < _payees.length */\n  lt\n    /* \"PaymentSplit/PaymentSplit.sol\":1576:1679  for(uint256 i = 0; i < _payees.length; i++){... */\n  iszero\n  tag_12\n  jumpi\n    /* \"PaymentSplit/PaymentSplit.sol\":1634:1667  _addPayee(_payees[i], _shares[i]) */\n  tag_14\n    /* \"PaymentSplit/PaymentSplit.sol\":1644:1651  _payees */\n  dup4\n    /* \"PaymentSplit/PaymentSplit.sol\":1652:1653  i */\n  dup3\n    /* \"PaymentSplit/PaymentSplit.sol\":1644:1654  _payees[i] */\n  dup2\n  mload\n  dup2\n  lt\n  tag_15\n  jumpi\n  tag_16\n  tag_17\n  jump\t// in\ntag_16:\ntag_15:\n  0x20\n  mul\n  0x20\n  add\n  add\n  mload\n    /* \"PaymentSplit/PaymentSplit.sol\":1656:1663  _shares */\n  dup4\n    /* \"PaymentSplit/PaymentSplit.sol\":1664:1665  i */\n  dup4\n    /* \"PaymentSplit/PaymentSplit.sol\":1656:1666  _shares[i] */\n  dup2\n  mload\n  dup2\n  lt\n  tag_18\n  jumpi\n  tag_19\n  tag_17\n  jump\t// in\ntag_19:\ntag_18:\n  0x20\n  mul\n  0x20\n  add\n  add\n  mload\n    /* \"PaymentSplit/PaymentSplit.sol\":1634:1643  _addPayee */\n  shl(0x20, tag_20)\n    /* \"PaymentSplit/PaymentSplit.sol\":1634:1667  _addPayee(_payees[i], _shares[i]) */\n  0x20\n  shr\n  jump\t// in\ntag_14:\n    /* \"PaymentSplit/PaymentSplit.sol\":1615:1618  i++ */\n  dup1\n  dup1\n  0x01\n  add\n  swap2\n  pop\n  pop\n    /* \"PaymentSplit/PaymentSplit.sol\":1576:1679  for(uint256 i = 0; i < _payees.length; i++){... */\n  jump(tag_11)\ntag_12:\n  pop\n    /* \"PaymentSplit/PaymentSplit.sol\":1351:1686  constructor(address[] memory _payees, uint256[] memory _shares) payable {... */\n  pop\n  pop\n    /* \"PaymentSplit/PaymentSplit.sol\":61:3131  contract PaymentSplit{... */\n  jump(tag_21)\n    /* \"PaymentSplit/PaymentSplit.sol\":645:1343  function _addPayee(address _account, uint256 _accountShares) private {... */\ntag_20:\n    /* \"PaymentSplit/PaymentSplit.sol\":793:794  0 */\n  0x00\n    /* \"PaymentSplit/PaymentSplit.sol\":773:795  _account != address(0) */\n  0xffffffffffffffffffffffffffffffffffffffff\n  and\n    /* \"PaymentSplit/PaymentSplit.sol\":773:781  _account */\n  dup3\n    /* \"PaymentSplit/PaymentSplit.sol\":773:795  _account != address(0) */\n  0xffffffffffffffffffffffffffffffffffffffff\n  and\n  sub\n    /* \"PaymentSplit/PaymentSplit.sol\":765:844  require(_account != address(0), \"PaymentSplitter: account is the zero address\") */\n  tag_23\n  jumpi\n  mload(0x40)\n  0x08c379a000000000000000000000000000000000000000000000000000000000\n  dup2\n  mstore\n  0x04\n  add\n  tag_24\n  swap1\n  tag_25\n  jump\t// in\ntag_24:\n  mload(0x40)\n  dup1\n  swap2\n  sub\n  swap1\n  revert\ntag_23:\n    /* \"PaymentSplit/PaymentSplit.sol\":920:921  0 */\n  0x00\n    /* \"PaymentSplit/PaymentSplit.sol\":903:917  _accountShares */\n  dup2\n    /* \"PaymentSplit/PaymentSplit.sol\":903:921  _accountShares > 0 */\n  gt\n    /* \"PaymentSplit/PaymentSplit.sol\":895:955  require(_accountShares > 0, \"PaymentSplitter: shares are 0\") */\n  tag_26\n  jumpi\n  mload(0x40)\n  0x08c379a000000000000000000000000000000000000000000000000000000000\n  dup2\n  mstore\n  0x04\n  add\n  tag_27\n  swap1\n  tag_28\n  jump\t// in\ntag_27:\n  mload(0x40)\n  dup1\n  swap2\n  sub\n  swap1\n  revert\ntag_26:\n    /* \"PaymentSplit/PaymentSplit.sol\":1030:1031  0 */\n  0x00\n    /* \"PaymentSplit/PaymentSplit.sol\":1010:1016  shares */\n  0x02\n    /* \"PaymentSplit/PaymentSplit.sol\":1010:1026  shares[_account] */\n  0x00\n    /* \"PaymentSplit/PaymentSplit.sol\":1017:1025  _account */\n  dup5\n    /* \"PaymentSplit/PaymentSplit.sol\":1010:1026  shares[_account] */\n  0xffffffffffffffffffffffffffffffffffffffff\n  and\n  0xffffffffffffffffffffffffffffffffffffffff\n  and\n  dup2\n  mstore\n  0x20\n  add\n  swap1\n  dup2\n  mstore\n  0x20\n  add\n  0x00\n  keccak256\n  sload\n    /* \"PaymentSplit/PaymentSplit.sol\":1010:1031  shares[_account] == 0 */\n  eq\n    /* \"PaymentSplit/PaymentSplit.sol\":1002:1079  require(shares[_account] == 0, \"PaymentSplitter: account already has shares\") */\n  tag_29\n  jumpi\n  mload(0x40)\n  0x08c379a000000000000000000000000000000000000000000000000000000000\n  dup2\n  mstore\n  0x04\n  add\n  tag_30\n  swap1\n  tag_31\n  jump\t// in\ntag_30:\n  mload(0x40)\n  dup1\n  swap2\n  sub\n  swap1\n  revert\ntag_29:\n    /* \"PaymentSplit/PaymentSplit.sol\":1138:1144  payees */\n  0x04\n    /* \"PaymentSplit/PaymentSplit.sol\":1150:1158  _account */\n  dup3\n    /* \"PaymentSplit/PaymentSplit.sol\":1138:1159  payees.push(_account) */\n  swap1\n  dup1\n  0x01\n  dup2\n  sload\n  add\n  dup1\n  dup3\n  sstore\n  dup1\n  swap2\n  pop\n  pop\n  0x01\n  swap1\n  sub\n  swap1\n  0x00\n  mstore\n  keccak256(0x00, 0x20)\n  add\n  0x00\n  swap1\n  swap2\n  swap1\n  swap2\n  swap1\n  swap2\n  0x0100\n  exp\n  dup2\n  sload\n  dup2\n  0xffffffffffffffffffffffffffffffffffffffff\n  mul\n  not\n  and\n  swap1\n  dup4\n  0xffffffffffffffffffffffffffffffffffffffff\n  and\n  mul\n  or\n  swap1\n  sstore\n  pop\n    /* \"PaymentSplit/PaymentSplit.sol\":1189:1203  _accountShares */\n  dup1\n    /* \"PaymentSplit/PaymentSplit.sol\":1170:1176  shares */\n  0x02\n    /* \"PaymentSplit/PaymentSplit.sol\":1170:1186  shares[_account] */\n  0x00\n    /* \"PaymentSplit/PaymentSplit.sol\":1177:1185  _account */\n  dup5\n    /* \"PaymentSplit/PaymentSplit.sol\":1170:1186  shares[_account] */\n  0xffffffffffffffffffffffffffffffffffffffff\n  and\n  0xffffffffffffffffffffffffffffffffffffffff\n  and\n  dup2\n  mstore\n  0x20\n  add\n  swap1\n  dup2\n  mstore\n  0x20\n  add\n  0x00\n  keccak256\n    /* \"PaymentSplit/PaymentSplit.sol\":1170:1203  shares[_account] = _accountShares */\n  dup2\n  swap1\n  sstore\n  pop\n    /* \"PaymentSplit/PaymentSplit.sol\":1229:1243  _accountShares */\n  dup1\n    /* \"PaymentSplit/PaymentSplit.sol\":1214:1225  totalShares */\n  0x00\n  dup1\n    /* \"PaymentSplit/PaymentSplit.sol\":1214:1243  totalShares += _accountShares */\n  dup3\n  dup3\n  sload\n  tag_33\n  swap2\n  swap1\n  tag_34\n  jump\t// in\ntag_33:\n  swap3\n  pop\n  pop\n  dup2\n  swap1\n  sstore\n  pop\n    /* \"PaymentSplit/PaymentSplit.sol\":1299:1335  PayeeAdded(_account, _accountShares) */\n  0x40c340f65e17194d14ddddb073d3c9f888e3cb52b5aae0c6c7706b4fbc905fac\n    /* \"PaymentSplit/PaymentSplit.sol\":1310:1318  _account */\n  dup3\n    /* \"PaymentSplit/PaymentSplit.sol\":1320:1334  _accountShares */\n  dup3\n    /* \"PaymentSplit/PaymentSplit.sol\":1299:1335  PayeeAdded(_account, _accountShares) */\n  mload(0x40)\n  tag_35\n  swap3\n  swap2\n  swap1\n  tag_36\n  jump\t// in\ntag_35:\n  mload(0x40)\n  dup1\n  swap2\n  sub\n  swap1\n  log1\n    /* \"PaymentSplit/PaymentSplit.sol\":645:1343  function _addPayee(address _account, uint256 _accountShares) private {... */\n  pop\n  pop\n  jump\t// out\n    /* \"#utility.yul\":7:82   */\ntag_37:\n    /* \"#utility.yul\":40:46   */\n  0x00\n    /* \"#utility.yul\":73:75   */\n  0x40\n    /* \"#utility.yul\":67:76   */\n  mload\n    /* \"#utility.yul\":57:76   */\n  swap1\n  pop\n    /* \"#utility.yul\":7:82   */\n  swap1\n  jump\t// out\n    /* \"#utility.yul\":88:205   */\ntag_38:\n    /* \"#utility.yul\":197:198   */\n  0x00\n    /* \"#utility.yul\":194:195   */\n  dup1\n    /* \"#utility.yul\":187:199   */\n  revert\n    /* \"#utility.yul\":211:328   */\ntag_39:\n    /* \"#utility.yul\":320:321   */\n  0x00\n    /* \"#utility.yul\":317:318   */\n  dup1\n    /* \"#utility.yul\":310:322   */\n  revert\n    /* \"#utility.yul\":334:451   */\ntag_40:\n    /* \"#utility.yul\":443:444   */\n  0x00\n    /* \"#utility.yul\":440:441   */\n  dup1\n    /* \"#utility.yul\":433:445   */\n  revert\n    /* \"#utility.yul\":457:559   */\ntag_41:\n    /* \"#utility.yul\":498:504   */\n  0x00\n    /* \"#utility.yul\":549:551   */\n  0x1f\n    /* \"#utility.yul\":545:552   */\n  not\n    /* \"#utility.yul\":540:542   */\n  0x1f\n    /* \"#utility.yul\":533:538   */\n  dup4\n    /* \"#utility.yul\":529:543   */\n  add\n    /* \"#utility.yul\":525:553   */\n  and\n    /* \"#utility.yul\":515:553   */\n  swap1\n  pop\n    /* \"#utility.yul\":457:559   */\n  swap2\n  swap1\n  pop\n  jump\t// out\n    /* \"#utility.yul\":565:745   */\ntag_42:\n    /* \"#utility.yul\":613:690   */\n  0x4e487b7100000000000000000000000000000000000000000000000000000000\n    /* \"#utility.yul\":610:611   */\n  0x00\n    /* \"#utility.yul\":603:691   */\n  mstore\n    /* \"#utility.yul\":710:714   */\n  0x41\n    /* \"#utility.yul\":707:708   */\n  0x04\n    /* \"#utility.yul\":700:715   */\n  mstore\n    /* \"#utility.yul\":734:738   */\n  0x24\n    /* \"#utility.yul\":731:732   */\n  0x00\n    /* \"#utility.yul\":724:739   */\n  revert\n    /* \"#utility.yul\":751:1032   */\ntag_43:\n    /* \"#utility.yul\":834:861   */\n  tag_81\n    /* \"#utility.yul\":856:860   */\n  dup3\n    /* \"#utility.yul\":834:861   */\n  tag_41\n  jump\t// in\ntag_81:\n    /* \"#utility.yul\":826:832   */\n  dup2\n    /* \"#utility.yul\":822:862   */\n  add\n    /* \"#utility.yul\":964:970   */\n  dup2\n    /* \"#utility.yul\":952:962   */\n  dup2\n    /* \"#utility.yul\":949:971   */\n  lt\n    /* \"#utility.yul\":928:946   */\n  0xffffffffffffffff\n    /* \"#utility.yul\":916:926   */\n  dup3\n    /* \"#utility.yul\":913:947   */\n  gt\n    /* \"#utility.yul\":910:972   */\n  or\n    /* \"#utility.yul\":907:995   */\n  iszero\n  tag_82\n  jumpi\n    /* \"#utility.yul\":975:993   */\n  tag_83\n  tag_42\n  jump\t// in\ntag_83:\n    /* \"#utility.yul\":907:995   */\ntag_82:\n    /* \"#utility.yul\":1015:1025   */\n  dup1\n    /* \"#utility.yul\":1011:1013   */\n  0x40\n    /* \"#utility.yul\":1004:1026   */\n  mstore\n    /* \"#utility.yul\":794:1032   */\n  pop\n    /* \"#utility.yul\":751:1032   */\n  pop\n  pop\n  jump\t// out\n    /* \"#utility.yul\":1038:1167   */\ntag_44:\n    /* \"#utility.yul\":1072:1078   */\n  0x00\n    /* \"#utility.yul\":1099:1119   */\n  tag_85\n  tag_37\n  jump\t// in\ntag_85:\n    /* \"#utility.yul\":1089:1119   */\n  swap1\n  pop\n    /* \"#utility.yul\":1128:1161   */\n  tag_86\n    /* \"#utility.yul\":1156:1160   */\n  dup3\n    /* \"#utility.yul\":1148:1154   */\n  dup3\n    /* \"#utility.yul\":1128:1161   */\n  tag_43\n  jump\t// in\ntag_86:\n    /* \"#utility.yul\":1038:1167   */\n  swap2\n  swap1\n  pop\n  jump\t// out\n    /* \"#utility.yul\":1173:1484   */\ntag_45:\n    /* \"#utility.yul\":1250:1254   */\n  0x00\n    /* \"#utility.yul\":1340:1358   */\n  0xffffffffffffffff\n    /* \"#utility.yul\":1332:1338   */\n  dup3\n    /* \"#utility.yul\":1329:1359   */\n  gt\n    /* \"#utility.yul\":1326:1382   */\n  iszero\n  tag_88\n  jumpi\n    /* \"#utility.yul\":1362:1380   */\n  tag_89\n  tag_42\n  jump\t// in\ntag_89:\n    /* \"#utility.yul\":1326:1382   */\ntag_88:\n    /* \"#utility.yul\":1412:1416   */\n  0x20\n    /* \"#utility.yul\":1404:1410   */\n  dup3\n    /* \"#utility.yul\":1400:1417   */\n  mul\n    /* \"#utility.yul\":1392:1417   */\n  swap1\n  pop\n    /* \"#utility.yul\":1472:1476   */\n  0x20\n    /* \"#utility.yul\":1466:1470   */\n  dup2\n    /* \"#utility.yul\":1462:1477   */\n  add\n    /* \"#utility.yul\":1454:1477   */\n  swap1\n  pop\n    /* \"#utility.yul\":1173:1484   */\n  swap2\n  swap1\n  pop\n  jump\t// out\n    /* \"#utility.yul\":1490:1607   */\ntag_46:\n    /* \"#utility.yul\":1599:1600   */\n  0x00\n    /* \"#utility.yul\":1596:1597   */\n  dup1\n    /* \"#utility.yul\":1589:1601   */\n  revert\n    /* \"#utility.yul\":1613:1739   */\ntag_47:\n    /* \"#utility.yul\":1650:1657   */\n  0x00\n    /* \"#utility.yul\":1690:1732   */\n  0xffffffffffffffffffffffffffffffffffffffff\n    /* \"#utility.yul\":1683:1688   */\n  dup3\n    /* \"#utility.yul\":1679:1733   */\n  and\n    /* \"#utility.yul\":1668:1733   */\n  swap1\n  pop\n    /* \"#utility.yul\":1613:1739   */\n  swap2\n  swap1\n  pop\n  jump\t// out\n    /* \"#utility.yul\":1745:1841   */\ntag_48:\n    /* \"#utility.yul\":1782:1789   */\n  0x00\n    /* \"#utility.yul\":1811:1835   */\n  tag_93\n    /* \"#utility.yul\":1829:1834   */\n  dup3\n    /* \"#utility.yul\":1811:1835   */\n  tag_47\n  jump\t// in\ntag_93:\n    /* \"#utility.yul\":1800:1835   */\n  swap1\n  pop\n    /* \"#utility.yul\":1745:1841   */\n  swap2\n  swap1\n  pop\n  jump\t// out\n    /* \"#utility.yul\":1847:1969   */\ntag_49:\n    /* \"#utility.yul\":1920:1944   */\n  tag_95\n    /* \"#utility.yul\":1938:1943   */\n  dup2\n    /* \"#utility.yul\":1920:1944   */\n  tag_48\n  jump\t// in\ntag_95:\n    /* \"#utility.yul\":1913:1918   */\n  dup2\n    /* \"#utility.yul\":1910:1945   */\n  eq\n    /* \"#utility.yul\":1900:1963   */\n  tag_96\n  jumpi\n    /* \"#utility.yul\":1959:1960   */\n  0x00\n    /* \"#utility.yul\":1956:1957   */\n  dup1\n    /* \"#utility.yul\":1949:1961   */\n  revert\n    /* \"#utility.yul\":1900:1963   */\ntag_96:\n    /* \"#utility.yul\":1847:1969   */\n  pop\n  jump\t// out\n    /* \"#utility.yul\":1975:2118   */\ntag_50:\n    /* \"#utility.yul\":2032:2037   */\n  0x00\n    /* \"#utility.yul\":2063:2069   */\n  dup2\n    /* \"#utility.yul\":2057:2070   */\n  mload\n    /* \"#utility.yul\":2048:2070   */\n  swap1\n  pop\n    /* \"#utility.yul\":2079:2112   */\n  tag_98\n    /* \"#utility.yul\":2106:2111   */\n  dup2\n    /* \"#utility.yul\":2079:2112   */\n  tag_49\n  jump\t// in\ntag_98:\n    /* \"#utility.yul\":1975:2118   */\n  swap3\n  swap2\n  pop\n  pop\n  jump\t// out\n    /* \"#utility.yul\":2141:2873   */\ntag_51:\n    /* \"#utility.yul\":2248:2253   */\n  0x00\n    /* \"#utility.yul\":2273:2354   */\n  tag_100\n    /* \"#utility.yul\":2289:2353   */\n  tag_101\n    /* \"#utility.yul\":2346:2352   */\n  dup5\n    /* \"#utility.yul\":2289:2353   */\n  tag_45\n  jump\t// in\ntag_101:\n    /* \"#utility.yul\":2273:2354   */\n  tag_44\n  jump\t// in\ntag_100:\n    /* \"#utility.yul\":2264:2354   */\n  swap1\n  pop\n    /* \"#utility.yul\":2374:2379   */\n  dup1\n    /* \"#utility.yul\":2403:2409   */\n  dup4\n    /* \"#utility.yul\":2396:2401   */\n  dup3\n    /* \"#utility.yul\":2389:2410   */\n  mstore\n    /* \"#utility.yul\":2437:2441   */\n  0x20\n    /* \"#utility.yul\":2430:2435   */\n  dup3\n    /* \"#utility.yul\":2426:2442   */\n  add\n    /* \"#utility.yul\":2419:2442   */\n  swap1\n  pop\n    /* \"#utility.yul\":2490:2494   */\n  0x20\n    /* \"#utility.yul\":2482:2488   */\n  dup5\n    /* \"#utility.yul\":2478:2495   */\n  mul\n    /* \"#utility.yul\":2470:2476   */\n  dup4\n    /* \"#utility.yul\":2466:2496   */\n  add\n    /* \"#utility.yul\":2519:2522   */\n  dup6\n    /* \"#utility.yul\":2511:2517   */\n  dup2\n    /* \"#utility.yul\":2508:2523   */\n  gt\n    /* \"#utility.yul\":2505:2627   */\n  iszero\n  tag_102\n  jumpi\n    /* \"#utility.yul\":2538:2617   */\n  tag_103\n  tag_46\n  jump\t// in\ntag_103:\n    /* \"#utility.yul\":2505:2627   */\ntag_102:\n    /* \"#utility.yul\":2653:2659   */\n  dup4\n    /* \"#utility.yul\":2636:2867   */\ntag_104:\n    /* \"#utility.yul\":2670:2676   */\n  dup2\n    /* \"#utility.yul\":2665:2668   */\n  dup2\n    /* \"#utility.yul\":2662:2677   */\n  lt\n    /* \"#utility.yul\":2636:2867   */\n  iszero\n  tag_106\n  jumpi\n    /* \"#utility.yul\":2745:2748   */\n  dup1\n    /* \"#utility.yul\":2774:2822   */\n  tag_107\n    /* \"#utility.yul\":2818:2821   */\n  dup9\n    /* \"#utility.yul\":2806:2816   */\n  dup3\n    /* \"#utility.yul\":2774:2822   */\n  tag_50\n  jump\t// in\ntag_107:\n    /* \"#utility.yul\":2769:2772   */\n  dup5\n    /* \"#utility.yul\":2762:2823   */\n  mstore\n    /* \"#utility.yul\":2852:2856   */\n  0x20\n    /* \"#utility.yul\":2847:2850   */\n  dup5\n    /* \"#utility.yul\":2843:2857   */\n  add\n    /* \"#utility.yul\":2836:2857   */\n  swap4\n  pop\n    /* \"#utility.yul\":2712:2867   */\n  pop\n    /* \"#utility.yul\":2696:2700   */\n  0x20\n    /* \"#utility.yul\":2691:2694   */\n  dup2\n    /* \"#utility.yul\":2687:2701   */\n  add\n    /* \"#utility.yul\":2680:2701   */\n  swap1\n  pop\n    /* \"#utility.yul\":2636:2867   */\n  jump(tag_104)\ntag_106:\n    /* \"#utility.yul\":2640:2661   */\n  pop\n    /* \"#utility.yul\":2254:2873   */\n  pop\n  pop\n    /* \"#utility.yul\":2141:2873   */\n  swap4\n  swap3\n  pop\n  pop\n  pop\n  jump\t// out\n    /* \"#utility.yul\":2896:3281   */\ntag_52:\n    /* \"#utility.yul\":2978:2983   */\n  0x00\n    /* \"#utility.yul\":3027:3030   */\n  dup3\n    /* \"#utility.yul\":3020:3024   */\n  0x1f\n    /* \"#utility.yul\":3012:3018   */\n  dup4\n    /* \"#utility.yul\":3008:3025   */\n  add\n    /* \"#utility.yul\":3004:3031   */\n  slt\n    /* \"#utility.yul\":2994:3116   */\n  tag_109\n  jumpi\n    /* \"#utility.yul\":3035:3114   */\n  tag_110\n  tag_40\n  jump\t// in\ntag_110:\n    /* \"#utility.yul\":2994:3116   */\ntag_109:\n    /* \"#utility.yul\":3145:3151   */\n  dup2\n    /* \"#utility.yul\":3139:3152   */\n  mload\n    /* \"#utility.yul\":3170:3275   */\n  tag_111\n    /* \"#utility.yul\":3271:3274   */\n  dup5\n    /* \"#utility.yul\":3263:3269   */\n  dup3\n    /* \"#utility.yul\":3256:3260   */\n  0x20\n    /* \"#utility.yul\":3248:3254   */\n  dup7\n    /* \"#utility.yul\":3244:3261   */\n  add\n    /* \"#utility.yul\":3170:3275   */\n  tag_51\n  jump\t// in\ntag_111:\n    /* \"#utility.yul\":3161:3275   */\n  swap2\n  pop\n    /* \"#utility.yul\":2984:3281   */\n  pop\n    /* \"#utility.yul\":2896:3281   */\n  swap3\n  swap2\n  pop\n  pop\n  jump\t// out\n    /* \"#utility.yul\":3287:3598   */\ntag_53:\n    /* \"#utility.yul\":3364:3368   */\n  0x00\n    /* \"#utility.yul\":3454:3472   */\n  0xffffffffffffffff\n    /* \"#utility.yul\":3446:3452   */\n  dup3\n    /* \"#utility.yul\":3443:3473   */\n  gt\n    /* \"#utility.yul\":3440:3496   */\n  iszero\n  tag_113\n  jumpi\n    /* \"#utility.yul\":3476:3494   */\n  tag_114\n  tag_42\n  jump\t// in\ntag_114:\n    /* \"#utility.yul\":3440:3496   */\ntag_113:\n    /* \"#utility.yul\":3526:3530   */\n  0x20\n    /* \"#utility.yul\":3518:3524   */\n  dup3\n    /* \"#utility.yul\":3514:3531   */\n  mul\n    /* \"#utility.yul\":3506:3531   */\n  swap1\n  pop\n    /* \"#utility.yul\":3586:3590   */\n  0x20\n    /* \"#utility.yul\":3580:3584   */\n  dup2\n    /* \"#utility.yul\":3576:3591   */\n  add\n    /* \"#utility.yul\":3568:3591   */\n  swap1\n  pop\n    /* \"#utility.yul\":3287:3598   */\n  swap2\n  swap1\n  pop\n  jump\t// out\n    /* \"#utility.yul\":3604:3681   */\ntag_54:\n    /* \"#utility.yul\":3641:3648   */\n  0x00\n    /* \"#utility.yul\":3670:3675   */\n  dup2\n    /* \"#utility.yul\":3659:3675   */\n  swap1\n  pop\n    /* \"#utility.yul\":3604:3681   */\n  swap2\n  swap1\n  pop\n  jump\t// out\n    /* \"#utility.yul\":3687:3809   */\ntag_55:\n    /* \"#utility.yul\":3760:3784   */\n  tag_117\n    /* \"#utility.yul\":3778:3783   */\n  dup2\n    /* \"#utility.yul\":3760:3784   */\n  tag_54\n  jump\t// in\ntag_117:\n    /* \"#utility.yul\":3753:3758   */\n  dup2\n    /* \"#utility.yul\":3750:3785   */\n  eq\n    /* \"#utility.yul\":3740:3803   */\n  tag_118\n  jumpi\n    /* \"#utility.yul\":3799:3800   */\n  0x00\n    /* \"#utility.yul\":3796:3797   */\n  dup1\n    /* \"#utility.yul\":3789:3801   */\n  revert\n    /* \"#utility.yul\":3740:3803   */\ntag_118:\n    /* \"#utility.yul\":3687:3809   */\n  pop\n  jump\t// out\n    /* \"#utility.yul\":3815:3958   */\ntag_56:\n    /* \"#utility.yul\":3872:3877   */\n  0x00\n    /* \"#utility.yul\":3903:3909   */\n  dup2\n    /* \"#utility.yul\":3897:3910   */\n  mload\n    /* \"#utility.yul\":3888:3910   */\n  swap1\n  pop\n    /* \"#utility.yul\":3919:3952   */\n  tag_120\n    /* \"#utility.yul\":3946:3951   */\n  dup2\n    /* \"#utility.yul\":3919:3952   */\n  tag_55\n  jump\t// in\ntag_120:\n    /* \"#utility.yul\":3815:3958   */\n  swap3\n  swap2\n  pop\n  pop\n  jump\t// out\n    /* \"#utility.yul\":3981:4713   */\ntag_57:\n    /* \"#utility.yul\":4088:4093   */\n  0x00\n    /* \"#utility.yul\":4113:4194   */\n  tag_122\n    /* \"#utility.yul\":4129:4193   */\n  tag_123\n    /* \"#utility.yul\":4186:4192   */\n  dup5\n    /* \"#utility.yul\":4129:4193   */\n  tag_53\n  jump\t// in\ntag_123:\n    /* \"#utility.yul\":4113:4194   */\n  tag_44\n  jump\t// in\ntag_122:\n    /* \"#utility.yul\":4104:4194   */\n  swap1\n  pop\n    /* \"#utility.yul\":4214:4219   */\n  dup1\n    /* \"#utility.yul\":4243:4249   */\n  dup4\n    /* \"#utility.yul\":4236:4241   */\n  dup3\n    /* \"#utility.yul\":4229:4250   */\n  mstore\n    /* \"#utility.yul\":4277:4281   */\n  0x20\n    /* \"#utility.yul\":4270:4275   */\n  dup3\n    /* \"#utility.yul\":4266:4282   */\n  add\n    /* \"#utility.yul\":4259:4282   */\n  swap1\n  pop\n    /* \"#utility.yul\":4330:4334   */\n  0x20\n    /* \"#utility.yul\":4322:4328   */\n  dup5\n    /* \"#utility.yul\":4318:4335   */\n  mul\n    /* \"#utility.yul\":4310:4316   */\n  dup4\n    /* \"#utility.yul\":4306:4336   */\n  add\n    /* \"#utility.yul\":4359:4362   */\n  dup6\n    /* \"#utility.yul\":4351:4357   */\n  dup2\n    /* \"#utility.yul\":4348:4363   */\n  gt\n    /* \"#utility.yul\":4345:4467   */\n  iszero\n  tag_124\n  jumpi\n    /* \"#utility.yul\":4378:4457   */\n  tag_125\n  tag_46\n  jump\t// in\ntag_125:\n    /* \"#utility.yul\":4345:4467   */\ntag_124:\n    /* \"#utility.yul\":4493:4499   */\n  dup4\n    /* \"#utility.yul\":4476:4707   */\ntag_126:\n    /* \"#utility.yul\":4510:4516   */\n  dup2\n    /* \"#utility.yul\":4505:4508   */\n  dup2\n    /* \"#utility.yul\":4502:4517   */\n  lt\n    /* \"#utility.yul\":4476:4707   */\n  iszero\n  tag_128\n  jumpi\n    /* \"#utility.yul\":4585:4588   */\n  dup1\n    /* \"#utility.yul\":4614:4662   */\n  tag_129\n    /* \"#utility.yul\":4658:4661   */\n  dup9\n    /* \"#utility.yul\":4646:4656   */\n  dup3\n    /* \"#utility.yul\":4614:4662   */\n  tag_56\n  jump\t// in\ntag_129:\n    /* \"#utility.yul\":4609:4612   */\n  dup5\n    /* \"#utility.yul\":4602:4663   */\n  mstore\n    /* \"#utility.yul\":4692:4696   */\n  0x20\n    /* \"#utility.yul\":4687:4690   */\n  dup5\n    /* \"#utility.yul\":4683:4697   */\n  add\n    /* \"#utility.yul\":4676:4697   */\n  swap4\n  pop\n    /* \"#utility.yul\":4552:4707   */\n  pop\n    /* \"#utility.yul\":4536:4540   */\n  0x20\n    /* \"#utility.yul\":4531:4534   */\n  dup2\n    /* \"#utility.yul\":4527:4541   */\n  add\n    /* \"#utility.yul\":4520:4541   */\n  swap1\n  pop\n    /* \"#utility.yul\":4476:4707   */\n  jump(tag_126)\ntag_128:\n    /* \"#utility.yul\":4480:4501   */\n  pop\n    /* \"#utility.yul\":4094:4713   */\n  pop\n  pop\n    /* \"#utility.yul\":3981:4713   */\n  swap4\n  swap3\n  pop\n  pop\n  pop\n  jump\t// out\n    /* \"#utility.yul\":4736:5121   */\ntag_58:\n    /* \"#utility.yul\":4818:4823   */\n  0x00\n    /* \"#utility.yul\":4867:4870   */\n  dup3\n    /* \"#utility.yul\":4860:4864   */\n  0x1f\n    /* \"#utility.yul\":4852:4858   */\n  dup4\n    /* \"#utility.yul\":4848:4865   */\n  add\n    /* \"#utility.yul\":4844:4871   */\n  slt\n    /* \"#utility.yul\":4834:4956   */\n  tag_131\n  jumpi\n    /* \"#utility.yul\":4875:4954   */\n  tag_132\n  tag_40\n  jump\t// in\ntag_132:\n    /* \"#utility.yul\":4834:4956   */\ntag_131:\n    /* \"#utility.yul\":4985:4991   */\n  dup2\n    /* \"#utility.yul\":4979:4992   */\n  mload\n    /* \"#utility.yul\":5010:5115   */\n  tag_133\n    /* \"#utility.yul\":5111:5114   */\n  dup5\n    /* \"#utility.yul\":5103:5109   */\n  dup3\n    /* \"#utility.yul\":5096:5100   */\n  0x20\n    /* \"#utility.yul\":5088:5094   */\n  dup7\n    /* \"#utility.yul\":5084:5101   */\n  add\n    /* \"#utility.yul\":5010:5115   */\n  tag_57\n  jump\t// in\ntag_133:\n    /* \"#utility.yul\":5001:5115   */\n  swap2\n  pop\n    /* \"#utility.yul\":4824:5121   */\n  pop\n    /* \"#utility.yul\":4736:5121   */\n  swap3\n  swap2\n  pop\n  pop\n  jump\t// out\n    /* \"#utility.yul\":5127:6040   */\ntag_2:\n    /* \"#utility.yul\":5256:5262   */\n  0x00\n    /* \"#utility.yul\":5264:5270   */\n  dup1\n    /* \"#utility.yul\":5313:5315   */\n  0x40\n    /* \"#utility.yul\":5301:5310   */\n  dup4\n    /* \"#utility.yul\":5292:5299   */\n  dup6\n    /* \"#utility.yul\":5288:5311   */\n  sub\n    /* \"#utility.yul\":5284:5316   */\n  slt\n    /* \"#utility.yul\":5281:5400   */\n  iszero\n  tag_135\n  jumpi\n    /* \"#utility.yul\":5319:5398   */\n  tag_136\n  tag_38\n  jump\t// in\ntag_136:\n    /* \"#utility.yul\":5281:5400   */\ntag_135:\n    /* \"#utility.yul\":5460:5461   */\n  0x00\n    /* \"#utility.yul\":5449:5458   */\n  dup4\n    /* \"#utility.yul\":5445:5462   */\n  add\n    /* \"#utility.yul\":5439:5463   */\n  mload\n    /* \"#utility.yul\":5490:5508   */\n  0xffffffffffffffff\n    /* \"#utility.yul\":5482:5488   */\n  dup2\n    /* \"#utility.yul\":5479:5509   */\n  gt\n    /* \"#utility.yul\":5476:5593   */\n  iszero\n  tag_137\n  jumpi\n    /* \"#utility.yul\":5512:5591   */\n  tag_138\n  tag_39\n  jump\t// in\ntag_138:\n    /* \"#utility.yul\":5476:5593   */\ntag_137:\n    /* \"#utility.yul\":5617:5706   */\n  tag_139\n    /* \"#utility.yul\":5698:5705   */\n  dup6\n    /* \"#utility.yul\":5689:5695   */\n  dup3\n    /* \"#utility.yul\":5678:5687   */\n  dup7\n    /* \"#utility.yul\":5674:5696   */\n  add\n    /* \"#utility.yul\":5617:5706   */\n  tag_52\n  jump\t// in\ntag_139:\n    /* \"#utility.yul\":5607:5706   */\n  swap3\n  pop\n    /* \"#utility.yul\":5410:5716   */\n  pop\n    /* \"#utility.yul\":5776:5778   */\n  0x20\n    /* \"#utility.yul\":5765:5774   */\n  dup4\n    /* \"#utility.yul\":5761:5779   */\n  add\n    /* \"#utility.yul\":5755:5780   */\n  mload\n    /* \"#utility.yul\":5807:5825   */\n  0xffffffffffffffff\n    /* \"#utility.yul\":5799:5805   */\n  dup2\n    /* \"#utility.yul\":5796:5826   */\n  gt\n    /* \"#utility.yul\":5793:5910   */\n  iszero\n  tag_140\n  jumpi\n    /* \"#utility.yul\":5829:5908   */\n  tag_141\n  tag_39\n  jump\t// in\ntag_141:\n    /* \"#utility.yul\":5793:5910   */\ntag_140:\n    /* \"#utility.yul\":5934:6023   */\n  tag_142\n    /* \"#utility.yul\":6015:6022   */\n  dup6\n    /* \"#utility.yul\":6006:6012   */\n  dup3\n    /* \"#utility.yul\":5995:6004   */\n  dup7\n    /* \"#utility.yul\":5991:6013   */\n  add\n    /* \"#utility.yul\":5934:6023   */\n  tag_58\n  jump\t// in\ntag_142:\n    /* \"#utility.yul\":5924:6023   */\n  swap2\n  pop\n    /* \"#utility.yul\":5726:6033   */\n  pop\n    /* \"#utility.yul\":5127:6040   */\n  swap3\n  pop\n  swap3\n  swap1\n  pop\n  jump\t// out\n    /* \"#utility.yul\":6046:6215   */\ntag_59:\n    /* \"#utility.yul\":6130:6141   */\n  0x00\n    /* \"#utility.yul\":6164:6170   */\n  dup3\n    /* \"#utility.yul\":6159:6162   */\n  dup3\n    /* \"#utility.yul\":6152:6171   */\n  mstore\n    /* \"#utility.yul\":6204:6208   */\n  0x20\n    /* \"#utility.yul\":6199:6202   */\n  dup3\n    /* \"#utility.yul\":6195:6209   */\n  add\n    /* \"#utility.yul\":6180:6209   */\n  swap1\n  pop\n    /* \"#utility.yul\":6046:6215   */\n  swap3\n  swap2\n  pop\n  pop\n  jump\t// out\n    /* \"#utility.yul\":6221:6441   */\ntag_60:\n    /* \"#utility.yul\":6361:6395   */\n  0x70617965657320616e6420736861726573206c656e677468206d69736d617463\n    /* \"#utility.yul\":6357:6358   */\n  0x00\n    /* \"#utility.yul\":6349:6355   */\n  dup3\n    /* \"#utility.yul\":6345:6359   */\n  add\n    /* \"#utility.yul\":6338:6396   */\n  mstore\n    /* \"#utility.yul\":6430:6433   */\n  0x6800000000000000000000000000000000000000000000000000000000000000\n    /* \"#utility.yul\":6425:6427   */\n  0x20\n    /* \"#utility.yul\":6417:6423   */\n  dup3\n    /* \"#utility.yul\":6413:6428   */\n  add\n    /* \"#utility.yul\":6406:6434   */\n  mstore\n    /* \"#utility.yul\":6221:6441   */\n  pop\n  jump\t// out\n    /* \"#utility.yul\":6447:6813   */\ntag_61:\n    /* \"#utility.yul\":6589:6592   */\n  0x00\n    /* \"#utility.yul\":6610:6677   */\n  tag_146\n    /* \"#utility.yul\":6674:6676   */\n  0x21\n    /* \"#utility.yul\":6669:6672   */\n  dup4\n    /* \"#utility.yul\":6610:6677   */\n  tag_59\n  jump\t// in\ntag_146:\n    /* \"#utility.yul\":6603:6677   */\n  swap2\n  pop\n    /* \"#utility.yul\":6686:6779   */\n  tag_147\n    /* \"#utility.yul\":6775:6778   */\n  dup3\n    /* \"#utility.yul\":6686:6779   */\n  tag_60\n  jump\t// in\ntag_147:\n    /* \"#utility.yul\":6804:6806   */\n  0x40\n    /* \"#utility.yul\":6799:6802   */\n  dup3\n    /* \"#utility.yul\":6795:6807   */\n  add\n    /* \"#utility.yul\":6788:6807   */\n  swap1\n  pop\n    /* \"#utility.yul\":6447:6813   */\n  swap2\n  swap1\n  pop\n  jump\t// out\n    /* \"#utility.yul\":6819:7238   */\ntag_7:\n    /* \"#utility.yul\":6985:6989   */\n  0x00\n    /* \"#utility.yul\":7023:7025   */\n  0x20\n    /* \"#utility.yul\":7012:7021   */\n  dup3\n    /* \"#utility.yul\":7008:7026   */\n  add\n    /* \"#utility.yul\":7000:7026   */\n  swap1\n  pop\n    /* \"#utility.yul\":7072:7081   */\n  dup2\n    /* \"#utility.yul\":7066:7070   */\n  dup2\n    /* \"#utility.yul\":7062:7082   */\n  sub\n    /* \"#utility.yul\":7058:7059   */\n  0x00\n    /* \"#utility.yul\":7047:7056   */\n  dup4\n    /* \"#utility.yul\":7043:7060   */\n  add\n    /* \"#utility.yul\":7036:7083   */\n  mstore\n    /* \"#utility.yul\":7100:7231   */\n  tag_149\n    /* \"#utility.yul\":7226:7230   */\n  dup2\n    /* \"#utility.yul\":7100:7231   */\n  tag_61\n  jump\t// in\ntag_149:\n    /* \"#utility.yul\":7092:7231   */\n  swap1\n  pop\n    /* \"#utility.yul\":6819:7238   */\n  swap2\n  swap1\n  pop\n  jump\t// out\n    /* \"#utility.yul\":7244:7403   */\ntag_62:\n    /* \"#utility.yul\":7384:7395   */\n  0x6e6f207061796565730000000000000000000000000000000000000000000000\n    /* \"#utility.yul\":7380:7381   */\n  0x00\n    /* \"#utility.yul\":7372:7378   */\n  dup3\n    /* \"#utility.yul\":7368:7382   */\n  add\n    /* \"#utility.yul\":7361:7396   */\n  mstore\n    /* \"#utility.yul\":7244:7403   */\n  pop\n  jump\t// out\n    /* \"#utility.yul\":7409:7774   */\ntag_63:\n    /* \"#utility.yul\":7551:7554   */\n  0x00\n    /* \"#utility.yul\":7572:7638   */\n  tag_152\n    /* \"#utility.yul\":7636:7637   */\n  0x09\n    /* \"#utility.yul\":7631:7634   */\n  dup4\n    /* \"#utility.yul\":7572:7638   */\n  tag_59\n  jump\t// in\ntag_152:\n    /* \"#utility.yul\":7565:7638   */\n  swap2\n  pop\n    /* \"#utility.yul\":7647:7740   */\n  tag_153\n    /* \"#utility.yul\":7736:7739   */\n  dup3\n    /* \"#utility.yul\":7647:7740   */\n  tag_62\n  jump\t// in\ntag_153:\n    /* \"#utility.yul\":7765:7767   */\n  0x20\n    /* \"#utility.yul\":7760:7763   */\n  dup3\n    /* \"#utility.yul\":7756:7768   */\n  add\n    /* \"#utility.yul\":7749:7768   */\n  swap1\n  pop\n    /* \"#utility.yul\":7409:7774   */\n  swap2\n  swap1\n  pop\n  jump\t// out\n    /* \"#utility.yul\":7780:8199   */\ntag_10:\n    /* \"#utility.yul\":7946:7950   */\n  0x00\n    /* \"#utility.yul\":7984:7986   */\n  0x20\n    /* \"#utility.yul\":7973:7982   */\n  dup3\n    /* \"#utility.yul\":7969:7987   */\n  add\n    /* \"#utility.yul\":7961:7987   */\n  swap1\n  pop\n    /* \"#utility.yul\":8033:8042   */\n  dup2\n    /* \"#utility.yul\":8027:8031   */\n  dup2\n    /* \"#utility.yul\":8023:8043   */\n  sub\n    /* \"#utility.yul\":8019:8020   */\n  0x00\n    /* \"#utility.yul\":8008:8017   */\n  dup4\n    /* \"#utility.yul\":8004:8021   */\n  add\n    /* \"#utility.yul\":7997:8044   */\n  mstore\n    /* \"#utility.yul\":8061:8192   */\n  tag_155\n    /* \"#utility.yul\":8187:8191   */\n  dup2\n    /* \"#utility.yul\":8061:8192   */\n  tag_63\n  jump\t// in\ntag_155:\n    /* \"#utility.yul\":8053:8192   */\n  swap1\n  pop\n    /* \"#utility.yul\":7780:8199   */\n  swap2\n  swap1\n  pop\n  jump\t// out\n    /* \"#utility.yul\":8205:8385   */\ntag_17:\n    /* \"#utility.yul\":8253:8330   */\n  0x4e487b7100000000000000000000000000000000000000000000000000000000\n    /* \"#utility.yul\":8250:8251   */\n  0x00\n    /* \"#utility.yul\":8243:8331   */\n  mstore\n    /* \"#utility.yul\":8350:8354   */\n  0x32\n    /* \"#utility.yul\":8347:8348   */\n  0x04\n    /* \"#utility.yul\":8340:8355   */\n  mstore\n    /* \"#utility.yul\":8374:8378   */\n  0x24\n    /* \"#utility.yul\":8371:8372   */\n  0x00\n    /* \"#utility.yul\":8364:8379   */\n  revert\n    /* \"#utility.yul\":8391:8622   */\ntag_64:\n    /* \"#utility.yul\":8531:8565   */\n  0x5061796d656e7453706c69747465723a206163636f756e742069732074686520\n    /* \"#utility.yul\":8527:8528   */\n  0x00\n    /* \"#utility.yul\":8519:8525   */\n  dup3\n    /* \"#utility.yul\":8515:8529   */\n  add\n    /* \"#utility.yul\":8508:8566   */\n  mstore\n    /* \"#utility.yul\":8600:8614   */\n  0x7a65726f20616464726573730000000000000000000000000000000000000000\n    /* \"#utility.yul\":8595:8597   */\n  0x20\n    /* \"#utility.yul\":8587:8593   */\n  dup3\n    /* \"#utility.yul\":8583:8598   */\n  add\n    /* \"#utility.yul\":8576:8615   */\n  mstore\n    /* \"#utility.yul\":8391:8622   */\n  pop\n  jump\t// out\n    /* \"#utility.yul\":8628:8994   */\ntag_65:\n    /* \"#utility.yul\":8770:8773   */\n  0x00\n    /* \"#utility.yul\":8791:8858   */\n  tag_159\n    /* \"#utility.yul\":8855:8857   */\n  0x2c\n    /* \"#utility.yul\":8850:8853   */\n  dup4\n    /* \"#utility.yul\":8791:8858   */\n  tag_59\n  jump\t// in\ntag_159:\n    /* \"#utility.yul\":8784:8858   */\n  swap2\n  pop\n    /* \"#utility.yul\":8867:8960   */\n  tag_160\n    /* \"#utility.yul\":8956:8959   */\n  dup3\n    /* \"#utility.yul\":8867:8960   */\n  tag_64\n  jump\t// in\ntag_160:\n    /* \"#utility.yul\":8985:8987   */\n  0x40\n    /* \"#utility.yul\":8980:8983   */\n  dup3\n    /* \"#utility.yul\":8976:8988   */\n  add\n    /* \"#utility.yul\":8969:8988   */\n  swap1\n  pop\n    /* \"#utility.yul\":8628:8994   */\n  swap2\n  swap1\n  pop\n  jump\t// out\n    /* \"#utility.yul\":9000:9419   */\ntag_25:\n    /* \"#utility.yul\":9166:9170   */\n  0x00\n    /* \"#utility.yul\":9204:9206   */\n  0x20\n    /* \"#utility.yul\":9193:9202   */\n  dup3\n    /* \"#utility.yul\":9189:9207   */\n  add\n    /* \"#utility.yul\":9181:9207   */\n  swap1\n  pop\n    /* \"#utility.yul\":9253:9262   */\n  dup2\n    /* \"#utility.yul\":9247:9251   */\n  dup2\n    /* \"#utility.yul\":9243:9263   */\n  sub\n    /* \"#utility.yul\":9239:9240   */\n  0x00\n    /* \"#utility.yul\":9228:9237   */\n  dup4\n    /* \"#utility.yul\":9224:9241   */\n  add\n    /* \"#utility.yul\":9217:9264   */\n  mstore\n    /* \"#utility.yul\":9281:9412   */\n  tag_162\n    /* \"#utility.yul\":9407:9411   */\n  dup2\n    /* \"#utility.yul\":9281:9412   */\n  tag_65\n  jump\t// in\ntag_162:\n    /* \"#utility.yul\":9273:9412   */\n  swap1\n  pop\n    /* \"#utility.yul\":9000:9419   */\n  swap2\n  swap1\n  pop\n  jump\t// out\n    /* \"#utility.yul\":9425:9604   */\ntag_66:\n    /* \"#utility.yul\":9565:9596   */\n  0x5061796d656e7453706c69747465723a20736861726573206172652030000000\n    /* \"#utility.yul\":9561:9562   */\n  0x00\n    /* \"#utility.yul\":9553:9559   */\n  dup3\n    /* \"#utility.yul\":9549:9563   */\n  add\n    /* \"#utility.yul\":9542:9597   */\n  mstore\n    /* \"#utility.yul\":9425:9604   */\n  pop\n  jump\t// out\n    /* \"#utility.yul\":9610:9976   */\ntag_67:\n    /* \"#utility.yul\":9752:9755   */\n  0x00\n    /* \"#utility.yul\":9773:9840   */\n  tag_165\n    /* \"#utility.yul\":9837:9839   */\n  0x1d\n    /* \"#utility.yul\":9832:9835   */\n  dup4\n    /* \"#utility.yul\":9773:9840   */\n  tag_59\n  jump\t// in\ntag_165:\n    /* \"#utility.yul\":9766:9840   */\n  swap2\n  pop\n    /* \"#utility.yul\":9849:9942   */\n  tag_166\n    /* \"#utility.yul\":9938:9941   */\n  dup3\n    /* \"#utility.yul\":9849:9942   */\n  tag_66\n  jump\t// in\ntag_166:\n    /* \"#utility.yul\":9967:9969   */\n  0x20\n    /* \"#utility.yul\":9962:9965   */\n  dup3\n    /* \"#utility.yul\":9958:9970   */\n  add\n    /* \"#utility.yul\":9951:9970   */\n  swap1\n  pop\n    /* \"#utility.yul\":9610:9976   */\n  swap2\n  swap1\n  pop\n  jump\t// out\n    /* \"#utility.yul\":9982:10401   */\ntag_28:\n    /* \"#utility.yul\":10148:10152   */\n  0x00\n    /* \"#utility.yul\":10186:10188   */\n  0x20\n    /* \"#utility.yul\":10175:10184   */\n  dup3\n    /* \"#utility.yul\":10171:10189   */\n  add\n    /* \"#utility.yul\":10163:10189   */\n  swap1\n  pop\n    /* \"#utility.yul\":10235:10244   */\n  dup2\n    /* \"#utility.yul\":10229:10233   */\n  dup2\n    /* \"#utility.yul\":10225:10245   */\n  sub\n    /* \"#utility.yul\":10221:10222   */\n  0x00\n    /* \"#utility.yul\":10210:10219   */\n  dup4\n    /* \"#utility.yul\":10206:10223   */\n  add\n    /* \"#utility.yul\":10199:10246   */\n  mstore\n    /* \"#utility.yul\":10263:10394   */\n  tag_168\n    /* \"#utility.yul\":10389:10393   */\n  dup2\n    /* \"#utility.yul\":10263:10394   */\n  tag_67\n  jump\t// in\ntag_168:\n    /* \"#utility.yul\":10255:10394   */\n  swap1\n  pop\n    /* \"#utility.yul\":9982:10401   */\n  swap2\n  swap1\n  pop\n  jump\t// out\n    /* \"#utility.yul\":10407:10637   */\ntag_68:\n    /* \"#utility.yul\":10547:10581   */\n  0x5061796d656e7453706c69747465723a206163636f756e7420616c7265616479\n    /* \"#utility.yul\":10543:10544   */\n  0x00\n    /* \"#utility.yul\":10535:10541   */\n  dup3\n    /* \"#utility.yul\":10531:10545   */\n  add\n    /* \"#utility.yul\":10524:10582   */\n  mstore\n    /* \"#utility.yul\":10616:10629   */\n  0x2068617320736861726573000000000000000000000000000000000000000000\n    /* \"#utility.yul\":10611:10613   */\n  0x20\n    /* \"#utility.yul\":10603:10609   */\n  dup3\n    /* \"#utility.yul\":10599:10614   */\n  add\n    /* \"#utility.yul\":10592:10630   */\n  mstore\n    /* \"#utility.yul\":10407:10637   */\n  pop\n  jump\t// out\n    /* \"#utility.yul\":10643:11009   */\ntag_69:\n    /* \"#utility.yul\":10785:10788   */\n  0x00\n    /* \"#utility.yul\":10806:10873   */\n  tag_171\n    /* \"#utility.yul\":10870:10872   */\n  0x2b\n    /* \"#utility.yul\":10865:10868   */\n  dup4\n    /* \"#utility.yul\":10806:10873   */\n  tag_59\n  jump\t// in\ntag_171:\n    /* \"#utility.yul\":10799:10873   */\n  swap2\n  pop\n    /* \"#utility.yul\":10882:10975   */\n  tag_172\n    /* \"#utility.yul\":10971:10974   */\n  dup3\n    /* \"#utility.yul\":10882:10975   */\n  tag_68\n  jump\t// in\ntag_172:\n    /* \"#utility.yul\":11000:11002   */\n  0x40\n    /* \"#utility.yul\":10995:10998   */\n  dup3\n    /* \"#utility.yul\":10991:11003   */\n  add\n    /* \"#utility.yul\":10984:11003   */\n  swap1\n  pop\n    /* \"#utility.yul\":10643:11009   */\n  swap2\n  swap1\n  pop\n  jump\t// out\n    /* \"#utility.yul\":11015:11434   */\ntag_31:\n    /* \"#utility.yul\":11181:11185   */\n  0x00\n    /* \"#utility.yul\":11219:11221   */\n  0x20\n    /* \"#utility.yul\":11208:11217   */\n  dup3\n    /* \"#utility.yul\":11204:11222   */\n  add\n    /* \"#utility.yul\":11196:11222   */\n  swap1\n  pop\n    /* \"#utility.yul\":11268:11277   */\n  dup2\n    /* \"#utility.yul\":11262:11266   */\n  dup2\n    /* \"#utility.yul\":11258:11278   */\n  sub\n    /* \"#utility.yul\":11254:11255   */\n  0x00\n    /* \"#utility.yul\":11243:11252   */\n  dup4\n    /* \"#utility.yul\":11239:11256   */\n  add\n    /* \"#utility.yul\":11232:11279   */\n  mstore\n    /* \"#utility.yul\":11296:11427   */\n  tag_174\n    /* \"#utility.yul\":11422:11426   */\n  dup2\n    /* \"#utility.yul\":11296:11427   */\n  tag_69\n  jump\t// in\ntag_174:\n    /* \"#utility.yul\":11288:11427   */\n  swap1\n  pop\n    /* \"#utility.yul\":11015:11434   */\n  swap2\n  swap1\n  pop\n  jump\t// out\n    /* \"#utility.yul\":11440:11620   */\ntag_70:\n    /* \"#utility.yul\":11488:11565   */\n  0x4e487b7100000000000000000000000000000000000000000000000000000000\n    /* \"#utility.yul\":11485:11486   */\n  0x00\n    /* \"#utility.yul\":11478:11566   */\n  mstore\n    /* \"#utility.yul\":11585:11589   */\n  0x11\n    /* \"#utility.yul\":11582:11583   */\n  0x04\n    /* \"#utility.yul\":11575:11590   */\n  mstore\n    /* \"#utility.yul\":11609:11613   */\n  0x24\n    /* \"#utility.yul\":11606:11607   */\n  0x00\n    /* \"#utility.yul\":11599:11614   */\n  revert\n    /* \"#utility.yul\":11626:11817   */\ntag_34:\n    /* \"#utility.yul\":11666:11669   */\n  0x00\n    /* \"#utility.yul\":11685:11705   */\n  tag_177\n    /* \"#utility.yul\":11703:11704   */\n  dup3\n    /* \"#utility.yul\":11685:11705   */\n  tag_54\n  jump\t// in\ntag_177:\n    /* \"#utility.yul\":11680:11705   */\n  swap2\n  pop\n    /* \"#utility.yul\":11719:11739   */\n  tag_178\n    /* \"#utility.yul\":11737:11738   */\n  dup4\n    /* \"#utility.yul\":11719:11739   */\n  tag_54\n  jump\t// in\ntag_178:\n    /* \"#utility.yul\":11714:11739   */\n  swap3\n  pop\n    /* \"#utility.yul\":11762:11763   */\n  dup3\n    /* \"#utility.yul\":11759:11760   */\n  dup3\n    /* \"#utility.yul\":11755:11764   */\n  add\n    /* \"#utility.yul\":11748:11764   */\n  swap1\n  pop\n    /* \"#utility.yul\":11783:11786   */\n  dup1\n    /* \"#utility.yul\":11780:11781   */\n  dup3\n    /* \"#utility.yul\":11777:11787   */\n  gt\n    /* \"#utility.yul\":11774:11810   */\n  iszero\n  tag_179\n  jumpi\n    /* \"#utility.yul\":11790:11808   */\n  tag_180\n  tag_70\n  jump\t// in\ntag_180:\n    /* \"#utility.yul\":11774:11810   */\ntag_179:\n    /* \"#utility.yul\":11626:11817   */\n  swap3\n  swap2\n  pop\n  pop\n  jump\t// out\n    /* \"#utility.yul\":11823:11941   */\ntag_71:\n    /* \"#utility.yul\":11910:11934   */\n  tag_182\n    /* \"#utility.yul\":11928:11933   */\n  dup2\n    /* \"#utility.yul\":11910:11934   */\n  tag_48\n  jump\t// in\ntag_182:\n    /* \"#utility.yul\":11905:11908   */\n  dup3\n    /* \"#utility.yul\":11898:11935   */\n  mstore\n    /* \"#utility.yul\":11823:11941   */\n  pop\n  pop\n  jump\t// out\n    /* \"#utility.yul\":11947:12065   */\ntag_72:\n    /* \"#utility.yul\":12034:12058   */\n  tag_184\n    /* \"#utility.yul\":12052:12057   */\n  dup2\n    /* \"#utility.yul\":12034:12058   */\n  tag_54\n  jump\t// in\ntag_184:\n    /* \"#utility.yul\":12029:12032   */\n  dup3\n    /* \"#utility.yul\":12022:12059   */\n  mstore\n    /* \"#utility.yul\":11947:12065   */\n  pop\n  pop\n  jump\t// out\n    /* \"#utility.yul\":12071:12403   */\ntag_36:\n    /* \"#utility.yul\":12192:12196   */\n  0x00\n    /* \"#utility.yul\":12230:12232   */\n  0x40\n    /* \"#utility.yul\":12219:12228   */\n  dup3\n    /* \"#utility.yul\":12215:12233   */\n  add\n    /* \"#utility.yul\":12207:12233   */\n  swap1\n  pop\n    /* \"#utility.yul\":12243:12314   */\n  tag_186\n    /* \"#utility.yul\":12311:12312   */\n  0x00\n    /* \"#utility.yul\":12300:12309   */\n  dup4\n    /* \"#utility.yul\":12296:12313   */\n  add\n    /* \"#utility.yul\":12287:12293   */\n  dup6\n    /* \"#utility.yul\":12243:12314   */\n  tag_71\n  jump\t// in\ntag_186:\n    /* \"#utility.yul\":12324:12396   */\n  tag_187\n    /* \"#utility.yul\":12392:12394   */\n  0x20\n    /* \"#utility.yul\":12381:12390   */\n  dup4\n    /* \"#utility.yul\":12377:12395   */\n  add\n    /* \"#utility.yul\":12368:12374   */\n  dup5\n    /* \"#utility.yul\":12324:12396   */\n  tag_72\n  jump\t// in\ntag_187:\n    /* \"#utility.yul\":12071:12403   */\n  swap4\n  swap3\n  pop\n  pop\n  pop\n  jump\t// out\n    /* \"PaymentSplit/PaymentSplit.sol\":61:3131  contract PaymentSplit{... */\ntag_21:\n  dataSize(sub_0)\n  dup1\n  dataOffset(sub_0)\n  0x00\n  codecopy\n  0x00\n  return\nstop\n\nsub_0: assembly {\n        /* \"PaymentSplit/PaymentSplit.sol\":61:3131  contract PaymentSplit{... */\n      mstore(0x40, 0x80)\n      jumpi(tag_1, lt(calldatasize, 0x04))\n      shr(0xe0, calldataload(0x00))\n      dup1\n      0x9852595c\n      gt\n      tag_11\n      jumpi\n      dup1\n      0x9852595c\n      eq\n      tag_7\n      jumpi\n      dup1\n      0xa3f8eace\n      eq\n      tag_8\n      jumpi\n      dup1\n      0xce7c2ac2\n      eq\n      tag_9\n      jumpi\n      dup1\n      0xe33b7de3\n      eq\n      tag_10\n      jumpi\n      jump(tag_2)\n    tag_11:\n      dup1\n      0x19165587\n      eq\n      tag_3\n      jumpi\n      dup1\n      0x1b51003d\n      eq\n      tag_4\n      jumpi\n      dup1\n      0x3a98ef39\n      eq\n      tag_5\n      jumpi\n      dup1\n      0x63037b0c\n      eq\n      tag_6\n      jumpi\n      jump(tag_2)\n    tag_1:\n      jumpi(tag_2, calldatasize)\n        /* \"PaymentSplit/PaymentSplit.sol\":1745:1783  PaymentReceived(msg.sender, msg.value) */\n      0x6ef95f06320e7a25a04a175ca677b7052bdd97131872c2192525a629f51be770\n        /* \"PaymentSplit/PaymentSplit.sol\":1761:1771  msg.sender */\n      caller\n        /* \"PaymentSplit/PaymentSplit.sol\":1773:1782  msg.value */\n      callvalue\n        /* \"PaymentSplit/PaymentSplit.sol\":1745:1783  PaymentReceived(msg.sender, msg.value) */\n      mload(0x40)\n      tag_14\n      swap3\n      swap2\n      swap1\n      tag_15\n      jump\t// in\n    tag_14:\n      mload(0x40)\n      dup1\n      swap2\n      sub\n      swap1\n      log1\n        /* \"PaymentSplit/PaymentSplit.sol\":61:3131  contract PaymentSplit{... */\n      stop\n    tag_2:\n      0x00\n      dup1\n      revert\n        /* \"PaymentSplit/PaymentSplit.sol\":1799:2458  function release(address payable _account) public virtual {... */\n    tag_3:\n      callvalue\n      dup1\n      iszero\n      tag_16\n      jumpi\n      0x00\n      dup1\n      revert\n    tag_16:\n      pop\n      tag_17\n      0x04\n      dup1\n      calldatasize\n      sub\n      dup2\n      add\n      swap1\n      tag_18\n      swap2\n      swap1\n      tag_19\n      jump\t// in\n    tag_18:\n      tag_20\n      jump\t// in\n    tag_17:\n      stop\n        /* \"PaymentSplit/PaymentSplit.sol\":2811:3126  function pendingPayment(... */\n    tag_4:\n      callvalue\n      dup1\n      iszero\n      tag_21\n      jumpi\n      0x00\n      dup1\n      revert\n    tag_21:\n      pop\n      tag_22\n      0x04\n      dup1\n      calldatasize\n      sub\n      dup2\n      add\n      swap1\n      tag_23\n      swap2\n      swap1\n      tag_24\n      jump\t// in\n    tag_23:\n      tag_25\n      jump\t// in\n    tag_22:\n      mload(0x40)\n      tag_26\n      swap2\n      swap1\n      tag_27\n      jump\t// in\n    tag_26:\n      mload(0x40)\n      dup1\n      swap2\n      sub\n      swap1\n      return\n        /* \"PaymentSplit/PaymentSplit.sol\":333:359  uint256 public totalShares */\n    tag_5:\n      callvalue\n      dup1\n      iszero\n      tag_28\n      jumpi\n      0x00\n      dup1\n      revert\n    tag_28:\n      pop\n      tag_29\n      tag_30\n      jump\t// in\n    tag_29:\n      mload(0x40)\n      tag_31\n      swap2\n      swap1\n      tag_27\n      jump\t// in\n    tag_31:\n      mload(0x40)\n      dup1\n      swap2\n      sub\n      swap1\n      return\n        /* \"PaymentSplit/PaymentSplit.sol\":592:615  address[] public payees */\n    tag_6:\n      callvalue\n      dup1\n      iszero\n      tag_32\n      jumpi\n      0x00\n      dup1\n      revert\n    tag_32:\n      pop\n      tag_33\n      0x04\n      dup1\n      calldatasize\n      sub\n      dup2\n      add\n      swap1\n      tag_34\n      swap2\n      swap1\n      tag_35\n      jump\t// in\n    tag_34:\n      tag_36\n      jump\t// in\n    tag_33:\n      mload(0x40)\n      tag_37\n      swap2\n      swap1\n      tag_38\n      jump\t// in\n    tag_37:\n      mload(0x40)\n      dup1\n      swap2\n      sub\n      swap1\n      return\n        /* \"PaymentSplit/PaymentSplit.sol\":505:548  mapping(address => uint256) public released */\n    tag_7:\n      callvalue\n      dup1\n      iszero\n      tag_39\n      jumpi\n      0x00\n      dup1\n      revert\n    tag_39:\n      pop\n      tag_40\n      0x04\n      dup1\n      calldatasize\n      sub\n      dup2\n      add\n      swap1\n      tag_41\n      swap2\n      swap1\n      tag_42\n      jump\t// in\n    tag_41:\n      tag_43\n      jump\t// in\n    tag_40:\n      mload(0x40)\n      tag_44\n      swap2\n      swap1\n      tag_27\n      jump\t// in\n    tag_44:\n      mload(0x40)\n      dup1\n      swap2\n      sub\n      swap1\n      return\n        /* \"PaymentSplit/PaymentSplit.sol\":2466:2803  function releasable(address _account) public view returns (uint256) {... */\n    tag_8:\n      callvalue\n      dup1\n      iszero\n      tag_45\n      jumpi\n      0x00\n      dup1\n      revert\n    tag_45:\n      pop\n      tag_46\n      0x04\n      dup1\n      calldatasize\n      sub\n      dup2\n      add\n      swap1\n      tag_47\n      swap2\n      swap1\n      tag_42\n      jump\t// in\n    tag_47:\n      tag_48\n      jump\t// in\n    tag_46:\n      mload(0x40)\n      tag_49\n      swap2\n      swap1\n      tag_27\n      jump\t// in\n    tag_49:\n      mload(0x40)\n      dup1\n      swap2\n      sub\n      swap1\n      return\n        /* \"PaymentSplit/PaymentSplit.sol\":429:470  mapping(address => uint256) public shares */\n    tag_9:\n      callvalue\n      dup1\n      iszero\n      tag_50\n      jumpi\n      0x00\n      dup1\n      revert\n    tag_50:\n      pop\n      tag_51\n      0x04\n      dup1\n      calldatasize\n      sub\n      dup2\n      add\n      swap1\n      tag_52\n      swap2\n      swap1\n      tag_42\n      jump\t// in\n    tag_52:\n      tag_53\n      jump\t// in\n    tag_51:\n      mload(0x40)\n      tag_54\n      swap2\n      swap1\n      tag_27\n      jump\t// in\n    tag_54:\n      mload(0x40)\n      dup1\n      swap2\n      sub\n      swap1\n      return\n        /* \"PaymentSplit/PaymentSplit.sol\":379:407  uint256 public totalReleased */\n    tag_10:\n      callvalue\n      dup1\n      iszero\n      tag_55\n      jumpi\n      0x00\n      dup1\n      revert\n    tag_55:\n      pop\n      tag_56\n      tag_57\n      jump\t// in\n    tag_56:\n      mload(0x40)\n      tag_58\n      swap2\n      swap1\n      tag_27\n      jump\t// in\n    tag_58:\n      mload(0x40)\n      dup1\n      swap2\n      sub\n      swap1\n      return\n        /* \"PaymentSplit/PaymentSplit.sol\":1799:2458  function release(address payable _account) public virtual {... */\n    tag_20:\n        /* \"PaymentSplit/PaymentSplit.sol\":1939:1940  0 */\n      0x00\n        /* \"PaymentSplit/PaymentSplit.sol\":1920:1926  shares */\n      0x02\n        /* \"PaymentSplit/PaymentSplit.sol\":1920:1936  shares[_account] */\n      0x00\n        /* \"PaymentSplit/PaymentSplit.sol\":1927:1935  _account */\n      dup4\n        /* \"PaymentSplit/PaymentSplit.sol\":1920:1936  shares[_account] */\n      0xffffffffffffffffffffffffffffffffffffffff\n      and\n      0xffffffffffffffffffffffffffffffffffffffff\n      and\n      dup2\n      mstore\n      0x20\n      add\n      swap1\n      dup2\n      mstore\n      0x20\n      add\n      0x00\n      keccak256\n      sload\n        /* \"PaymentSplit/PaymentSplit.sol\":1920:1940  shares[_account] > 0 */\n      gt\n        /* \"PaymentSplit/PaymentSplit.sol\":1912:1983  require(shares[_account] > 0, \"PaymentSplitter: account has no shares\") */\n      tag_60\n      jumpi\n      mload(0x40)\n      0x08c379a000000000000000000000000000000000000000000000000000000000\n      dup2\n      mstore\n      0x04\n      add\n      tag_61\n      swap1\n      tag_62\n      jump\t// in\n    tag_61:\n      mload(0x40)\n      dup1\n      swap2\n      sub\n      swap1\n      revert\n    tag_60:\n        /* \"PaymentSplit/PaymentSplit.sol\":2032:2047  uint256 payment */\n      0x00\n        /* \"PaymentSplit/PaymentSplit.sol\":2050:2070  releasable(_account) */\n      tag_63\n        /* \"PaymentSplit/PaymentSplit.sol\":2061:2069  _account */\n      dup3\n        /* \"PaymentSplit/PaymentSplit.sol\":2050:2060  releasable */\n      tag_48\n        /* \"PaymentSplit/PaymentSplit.sol\":2050:2070  releasable(_account) */\n      jump\t// in\n    tag_63:\n        /* \"PaymentSplit/PaymentSplit.sol\":2032:2070  uint256 payment = releasable(_account) */\n      swap1\n      pop\n        /* \"PaymentSplit/PaymentSplit.sol\":2135:2136  0 */\n      0x00\n        /* \"PaymentSplit/PaymentSplit.sol\":2124:2131  payment */\n      dup2\n        /* \"PaymentSplit/PaymentSplit.sol\":2124:2136  payment != 0 */\n      sub\n        /* \"PaymentSplit/PaymentSplit.sol\":2116:2184  require(payment != 0, \"PaymentSplitter: account is not due payment\") */\n      tag_64\n      jumpi\n      mload(0x40)\n      0x08c379a000000000000000000000000000000000000000000000000000000000\n      dup2\n      mstore\n      0x04\n      add\n      tag_65\n      swap1\n      tag_66\n      jump\t// in\n    tag_65:\n      mload(0x40)\n      dup1\n      swap2\n      sub\n      swap1\n      revert\n    tag_64:\n        /* \"PaymentSplit/PaymentSplit.sol\":2297:2304  payment */\n      dup1\n        /* \"PaymentSplit/PaymentSplit.sol\":2280:2293  totalReleased */\n      0x01\n      0x00\n        /* \"PaymentSplit/PaymentSplit.sol\":2280:2304  totalReleased += payment */\n      dup3\n      dup3\n      sload\n      tag_67\n      swap2\n      swap1\n      tag_68\n      jump\t// in\n    tag_67:\n      swap3\n      pop\n      pop\n      dup2\n      swap1\n      sstore\n      pop\n        /* \"PaymentSplit/PaymentSplit.sol\":2337:2344  payment */\n      dup1\n        /* \"PaymentSplit/PaymentSplit.sol\":2315:2323  released */\n      0x03\n        /* \"PaymentSplit/PaymentSplit.sol\":2315:2333  released[_account] */\n      0x00\n        /* \"PaymentSplit/PaymentSplit.sol\":2324:2332  _account */\n      dup5\n        /* \"PaymentSplit/PaymentSplit.sol\":2315:2333  released[_account] */\n      0xffffffffffffffffffffffffffffffffffffffff\n      and\n      0xffffffffffffffffffffffffffffffffffffffff\n      and\n      dup2\n      mstore\n      0x20\n      add\n      swap1\n      dup2\n      mstore\n      0x20\n      add\n      0x00\n      keccak256\n      0x00\n        /* \"PaymentSplit/PaymentSplit.sol\":2315:2344  released[_account] += payment */\n      dup3\n      dup3\n      sload\n      tag_69\n      swap2\n      swap1\n      tag_68\n      jump\t// in\n    tag_69:\n      swap3\n      pop\n      pop\n      dup2\n      swap1\n      sstore\n      pop\n        /* \"PaymentSplit/PaymentSplit.sol\":2374:2382  _account */\n      dup2\n        /* \"PaymentSplit/PaymentSplit.sol\":2374:2391  _account.transfer */\n      0xffffffffffffffffffffffffffffffffffffffff\n      and\n        /* \"PaymentSplit/PaymentSplit.sol\":2374:2400  _account.transfer(payment) */\n      0x08fc\n        /* \"PaymentSplit/PaymentSplit.sol\":2392:2399  payment */\n      dup3\n        /* \"PaymentSplit/PaymentSplit.sol\":2374:2400  _account.transfer(payment) */\n      swap1\n      dup2\n      iszero\n      mul\n      swap1\n      mload(0x40)\n      0x00\n      mload(0x40)\n      dup1\n      dup4\n      sub\n      dup2\n      dup6\n      dup9\n      dup9\n      call\n      swap4\n      pop\n      pop\n      pop\n      pop\n      iszero\n      dup1\n      iszero\n      tag_71\n      jumpi\n      returndatasize\n      0x00\n      dup1\n      returndatacopy\n      revert(0x00, returndatasize)\n    tag_71:\n      pop\n        /* \"PaymentSplit/PaymentSplit.sol\":2416:2450  PaymentReleased(_account, payment) */\n      0xdf20fd1e76bc69d672e4814fafb2c449bba3a5369d8359adf9e05e6fde87b056\n        /* \"PaymentSplit/PaymentSplit.sol\":2432:2440  _account */\n      dup3\n        /* \"PaymentSplit/PaymentSplit.sol\":2442:2449  payment */\n      dup3\n        /* \"PaymentSplit/PaymentSplit.sol\":2416:2450  PaymentReleased(_account, payment) */\n      mload(0x40)\n      tag_72\n      swap3\n      swap2\n      swap1\n      tag_73\n      jump\t// in\n    tag_72:\n      mload(0x40)\n      dup1\n      swap2\n      sub\n      swap1\n      log1\n        /* \"PaymentSplit/PaymentSplit.sol\":1857:2458  {... */\n      pop\n        /* \"PaymentSplit/PaymentSplit.sol\":1799:2458  function release(address payable _account) public virtual {... */\n      pop\n      jump\t// out\n        /* \"PaymentSplit/PaymentSplit.sol\":2811:3126  function pendingPayment(... */\n    tag_25:\n        /* \"PaymentSplit/PaymentSplit.sol\":2958:2965  uint256 */\n      0x00\n        /* \"PaymentSplit/PaymentSplit.sol\":3102:3118  _alreadyReleased */\n      dup2\n        /* \"PaymentSplit/PaymentSplit.sol\":3088:3099  totalShares */\n      sload(0x00)\n        /* \"PaymentSplit/PaymentSplit.sol\":3068:3074  shares */\n      0x02\n        /* \"PaymentSplit/PaymentSplit.sol\":3068:3084  shares[_account] */\n      0x00\n        /* \"PaymentSplit/PaymentSplit.sol\":3075:3083  _account */\n      dup8\n        /* \"PaymentSplit/PaymentSplit.sol\":3068:3084  shares[_account] */\n      0xffffffffffffffffffffffffffffffffffffffff\n      and\n      0xffffffffffffffffffffffffffffffffffffffff\n      and\n      dup2\n      mstore\n      0x20\n      add\n      swap1\n      dup2\n      mstore\n      0x20\n      add\n      0x00\n      keccak256\n      sload\n        /* \"PaymentSplit/PaymentSplit.sol\":3051:3065  _totalReceived */\n      dup6\n        /* \"PaymentSplit/PaymentSplit.sol\":3051:3084  _totalReceived * shares[_account] */\n      tag_75\n      swap2\n      swap1\n      tag_76\n      jump\t// in\n    tag_75:\n        /* \"PaymentSplit/PaymentSplit.sol\":3050:3099  (_totalReceived * shares[_account]) / totalShares */\n      tag_77\n      swap2\n      swap1\n      tag_78\n      jump\t// in\n    tag_77:\n        /* \"PaymentSplit/PaymentSplit.sol\":3050:3118  (_totalReceived * shares[_account]) / totalShares - _alreadyReleased */\n      tag_79\n      swap2\n      swap1\n      tag_80\n      jump\t// in\n    tag_79:\n        /* \"PaymentSplit/PaymentSplit.sol\":3043:3118  return (_totalReceived * shares[_account]) / totalShares - _alreadyReleased */\n      swap1\n      pop\n        /* \"PaymentSplit/PaymentSplit.sol\":2811:3126  function pendingPayment(... */\n      swap4\n      swap3\n      pop\n      pop\n      pop\n      jump\t// out\n        /* \"PaymentSplit/PaymentSplit.sol\":333:359  uint256 public totalShares */\n    tag_30:\n      sload(0x00)\n      dup2\n      jump\t// out\n        /* \"PaymentSplit/PaymentSplit.sol\":592:615  address[] public payees */\n    tag_36:\n      0x04\n      dup2\n      dup2\n      sload\n      dup2\n      lt\n      tag_81\n      jumpi\n      0x00\n      dup1\n      revert\n    tag_81:\n      swap1\n      0x00\n      mstore\n      keccak256(0x00, 0x20)\n      add\n      0x00\n      swap2\n      pop\n      sload\n      swap1\n      0x0100\n      exp\n      swap1\n      div\n      0xffffffffffffffffffffffffffffffffffffffff\n      and\n      dup2\n      jump\t// out\n        /* \"PaymentSplit/PaymentSplit.sol\":505:548  mapping(address => uint256) public released */\n    tag_43:\n      mstore(0x20, 0x03)\n      dup1\n      0x00\n      mstore\n      keccak256(0x00, 0x40)\n      0x00\n      swap2\n      pop\n      swap1\n      pop\n      sload\n      dup2\n      jump\t// out\n        /* \"PaymentSplit/PaymentSplit.sol\":2466:2803  function releasable(address _account) public view returns (uint256) {... */\n    tag_48:\n        /* \"PaymentSplit/PaymentSplit.sol\":2525:2532  uint256 */\n      0x00\n        /* \"PaymentSplit/PaymentSplit.sol\":2598:2619  uint256 totalReceived */\n      dup1\n        /* \"PaymentSplit/PaymentSplit.sol\":2646:2659  totalReleased */\n      sload(0x01)\n        /* \"PaymentSplit/PaymentSplit.sol\":2622:2643  address(this).balance */\n      selfbalance\n        /* \"PaymentSplit/PaymentSplit.sol\":2622:2659  address(this).balance + totalReleased */\n      tag_84\n      swap2\n      swap1\n      tag_68\n      jump\t// in\n    tag_84:\n        /* \"PaymentSplit/PaymentSplit.sol\":2598:2659  uint256 totalReceived = address(this).balance + totalReleased */\n      swap1\n      pop\n        /* \"PaymentSplit/PaymentSplit.sol\":2736:2795  pendingPayment(_account, totalReceived, released[_account]) */\n      tag_85\n        /* \"PaymentSplit/PaymentSplit.sol\":2751:2759  _account */\n      dup4\n        /* \"PaymentSplit/PaymentSplit.sol\":2761:2774  totalReceived */\n      dup3\n        /* \"PaymentSplit/PaymentSplit.sol\":2776:2784  released */\n      0x03\n        /* \"PaymentSplit/PaymentSplit.sol\":2776:2794  released[_account] */\n      0x00\n        /* \"PaymentSplit/PaymentSplit.sol\":2785:2793  _account */\n      dup8\n        /* \"PaymentSplit/PaymentSplit.sol\":2776:2794  released[_account] */\n      0xffffffffffffffffffffffffffffffffffffffff\n      and\n      0xffffffffffffffffffffffffffffffffffffffff\n      and\n      dup2\n      mstore\n      0x20\n      add\n      swap1\n      dup2\n      mstore\n      0x20\n      add\n      0x00\n      keccak256\n      sload\n        /* \"PaymentSplit/PaymentSplit.sol\":2736:2750  pendingPayment */\n      tag_25\n        /* \"PaymentSplit/PaymentSplit.sol\":2736:2795  pendingPayment(_account, totalReceived, released[_account]) */\n      jump\t// in\n    tag_85:\n        /* \"PaymentSplit/PaymentSplit.sol\":2729:2795  return pendingPayment(_account, totalReceived, released[_account]) */\n      swap2\n      pop\n      pop\n        /* \"PaymentSplit/PaymentSplit.sol\":2466:2803  function releasable(address _account) public view returns (uint256) {... */\n      swap2\n      swap1\n      pop\n      jump\t// out\n        /* \"PaymentSplit/PaymentSplit.sol\":429:470  mapping(address => uint256) public shares */\n    tag_53:\n      mstore(0x20, 0x02)\n      dup1\n      0x00\n      mstore\n      keccak256(0x00, 0x40)\n      0x00\n      swap2\n      pop\n      swap1\n      pop\n      sload\n      dup2\n      jump\t// out\n        /* \"PaymentSplit/PaymentSplit.sol\":379:407  uint256 public totalReleased */\n    tag_57:\n      sload(0x01)\n      dup2\n      jump\t// out\n        /* \"#utility.yul\":7:133   */\n    tag_86:\n        /* \"#utility.yul\":44:51   */\n      0x00\n        /* \"#utility.yul\":84:126   */\n      0xffffffffffffffffffffffffffffffffffffffff\n        /* \"#utility.yul\":77:82   */\n      dup3\n        /* \"#utility.yul\":73:127   */\n      and\n        /* \"#utility.yul\":62:127   */\n      swap1\n      pop\n        /* \"#utility.yul\":7:133   */\n      swap2\n      swap1\n      pop\n      jump\t// out\n        /* \"#utility.yul\":139:235   */\n    tag_87:\n        /* \"#utility.yul\":176:183   */\n      0x00\n        /* \"#utility.yul\":205:229   */\n      tag_116\n        /* \"#utility.yul\":223:228   */\n      dup3\n        /* \"#utility.yul\":205:229   */\n      tag_86\n      jump\t// in\n    tag_116:\n        /* \"#utility.yul\":194:229   */\n      swap1\n      pop\n        /* \"#utility.yul\":139:235   */\n      swap2\n      swap1\n      pop\n      jump\t// out\n        /* \"#utility.yul\":241:359   */\n    tag_88:\n        /* \"#utility.yul\":328:352   */\n      tag_118\n        /* \"#utility.yul\":346:351   */\n      dup2\n        /* \"#utility.yul\":328:352   */\n      tag_87\n      jump\t// in\n    tag_118:\n        /* \"#utility.yul\":323:326   */\n      dup3\n        /* \"#utility.yul\":316:353   */\n      mstore\n        /* \"#utility.yul\":241:359   */\n      pop\n      pop\n      jump\t// out\n        /* \"#utility.yul\":365:442   */\n    tag_89:\n        /* \"#utility.yul\":402:409   */\n      0x00\n        /* \"#utility.yul\":431:436   */\n      dup2\n        /* \"#utility.yul\":420:436   */\n      swap1\n      pop\n        /* \"#utility.yul\":365:442   */\n      swap2\n      swap1\n      pop\n      jump\t// out\n        /* \"#utility.yul\":448:566   */\n    tag_90:\n        /* \"#utility.yul\":535:559   */\n      tag_121\n        /* \"#utility.yul\":553:558   */\n      dup2\n        /* \"#utility.yul\":535:559   */\n      tag_89\n      jump\t// in\n    tag_121:\n        /* \"#utility.yul\":530:533   */\n      dup3\n        /* \"#utility.yul\":523:560   */\n      mstore\n        /* \"#utility.yul\":448:566   */\n      pop\n      pop\n      jump\t// out\n        /* \"#utility.yul\":572:904   */\n    tag_15:\n        /* \"#utility.yul\":693:697   */\n      0x00\n        /* \"#utility.yul\":731:733   */\n      0x40\n        /* \"#utility.yul\":720:729   */\n      dup3\n        /* \"#utility.yul\":716:734   */\n      add\n        /* \"#utility.yul\":708:734   */\n      swap1\n      pop\n        /* \"#utility.yul\":744:815   */\n      tag_123\n        /* \"#utility.yul\":812:813   */\n      0x00\n        /* \"#utility.yul\":801:810   */\n      dup4\n        /* \"#utility.yul\":797:814   */\n      add\n        /* \"#utility.yul\":788:794   */\n      dup6\n        /* \"#utility.yul\":744:815   */\n      tag_88\n      jump\t// in\n    tag_123:\n        /* \"#utility.yul\":825:897   */\n      tag_124\n        /* \"#utility.yul\":893:895   */\n      0x20\n        /* \"#utility.yul\":882:891   */\n      dup4\n        /* \"#utility.yul\":878:896   */\n      add\n        /* \"#utility.yul\":869:875   */\n      dup5\n        /* \"#utility.yul\":825:897   */\n      tag_90\n      jump\t// in\n    tag_124:\n        /* \"#utility.yul\":572:904   */\n      swap4\n      swap3\n      pop\n      pop\n      pop\n      jump\t// out\n        /* \"#utility.yul\":991:1108   */\n    tag_92:\n        /* \"#utility.yul\":1100:1101   */\n      0x00\n        /* \"#utility.yul\":1097:1098   */\n      dup1\n        /* \"#utility.yul\":1090:1102   */\n      revert\n        /* \"#utility.yul\":1237:1341   */\n    tag_94:\n        /* \"#utility.yul\":1282:1289   */\n      0x00\n        /* \"#utility.yul\":1311:1335   */\n      tag_129\n        /* \"#utility.yul\":1329:1334   */\n      dup3\n        /* \"#utility.yul\":1311:1335   */\n      tag_86\n      jump\t// in\n    tag_129:\n        /* \"#utility.yul\":1300:1335   */\n      swap1\n      pop\n        /* \"#utility.yul\":1237:1341   */\n      swap2\n      swap1\n      pop\n      jump\t// out\n        /* \"#utility.yul\":1347:1485   */\n    tag_95:\n        /* \"#utility.yul\":1428:1460   */\n      tag_131\n        /* \"#utility.yul\":1454:1459   */\n      dup2\n        /* \"#utility.yul\":1428:1460   */\n      tag_94\n      jump\t// in\n    tag_131:\n        /* \"#utility.yul\":1421:1426   */\n      dup2\n        /* \"#utility.yul\":1418:1461   */\n      eq\n        /* \"#utility.yul\":1408:1479   */\n      tag_132\n      jumpi\n        /* \"#utility.yul\":1475:1476   */\n      0x00\n        /* \"#utility.yul\":1472:1473   */\n      dup1\n        /* \"#utility.yul\":1465:1477   */\n      revert\n        /* \"#utility.yul\":1408:1479   */\n    tag_132:\n        /* \"#utility.yul\":1347:1485   */\n      pop\n      jump\t// out\n        /* \"#utility.yul\":1491:1646   */\n    tag_96:\n        /* \"#utility.yul\":1545:1550   */\n      0x00\n        /* \"#utility.yul\":1583:1589   */\n      dup2\n        /* \"#utility.yul\":1570:1590   */\n      calldataload\n        /* \"#utility.yul\":1561:1590   */\n      swap1\n      pop\n        /* \"#utility.yul\":1599:1640   */\n      tag_134\n        /* \"#utility.yul\":1634:1639   */\n      dup2\n        /* \"#utility.yul\":1599:1640   */\n      tag_95\n      jump\t// in\n    tag_134:\n        /* \"#utility.yul\":1491:1646   */\n      swap3\n      swap2\n      pop\n      pop\n      jump\t// out\n        /* \"#utility.yul\":1652:1997   */\n    tag_19:\n        /* \"#utility.yul\":1719:1725   */\n      0x00\n        /* \"#utility.yul\":1768:1770   */\n      0x20\n        /* \"#utility.yul\":1756:1765   */\n      dup3\n        /* \"#utility.yul\":1747:1754   */\n      dup5\n        /* \"#utility.yul\":1743:1766   */\n      sub\n        /* \"#utility.yul\":1739:1771   */\n      slt\n        /* \"#utility.yul\":1736:1855   */\n      iszero\n      tag_136\n      jumpi\n        /* \"#utility.yul\":1774:1853   */\n      tag_137\n      tag_92\n      jump\t// in\n    tag_137:\n        /* \"#utility.yul\":1736:1855   */\n    tag_136:\n        /* \"#utility.yul\":1894:1895   */\n      0x00\n        /* \"#utility.yul\":1919:1980   */\n      tag_138\n        /* \"#utility.yul\":1972:1979   */\n      dup5\n        /* \"#utility.yul\":1963:1969   */\n      dup3\n        /* \"#utility.yul\":1952:1961   */\n      dup6\n        /* \"#utility.yul\":1948:1970   */\n      add\n        /* \"#utility.yul\":1919:1980   */\n      tag_96\n      jump\t// in\n    tag_138:\n        /* \"#utility.yul\":1909:1980   */\n      swap2\n      pop\n        /* \"#utility.yul\":1865:1990   */\n      pop\n        /* \"#utility.yul\":1652:1997   */\n      swap3\n      swap2\n      pop\n      pop\n      jump\t// out\n        /* \"#utility.yul\":2003:2125   */\n    tag_97:\n        /* \"#utility.yul\":2076:2100   */\n      tag_140\n        /* \"#utility.yul\":2094:2099   */\n      dup2\n        /* \"#utility.yul\":2076:2100   */\n      tag_87\n      jump\t// in\n    tag_140:\n        /* \"#utility.yul\":2069:2074   */\n      dup2\n        /* \"#utility.yul\":2066:2101   */\n      eq\n        /* \"#utility.yul\":2056:2119   */\n      tag_141\n      jumpi\n        /* \"#utility.yul\":2115:2116   */\n      0x00\n        /* \"#utility.yul\":2112:2113   */\n      dup1\n        /* \"#utility.yul\":2105:2117   */\n      revert\n        /* \"#utility.yul\":2056:2119   */\n    tag_141:\n        /* \"#utility.yul\":2003:2125   */\n      pop\n      jump\t// out\n        /* \"#utility.yul\":2131:2270   */\n    tag_98:\n        /* \"#utility.yul\":2177:2182   */\n      0x00\n        /* \"#utility.yul\":2215:2221   */\n      dup2\n        /* \"#utility.yul\":2202:2222   */\n      calldataload\n        /* \"#utility.yul\":2193:2222   */\n      swap1\n      pop\n        /* \"#utility.yul\":2231:2264   */\n      tag_143\n        /* \"#utility.yul\":2258:2263   */\n      dup2\n        /* \"#utility.yul\":2231:2264   */\n      tag_97\n      jump\t// in\n    tag_143:\n        /* \"#utility.yul\":2131:2270   */\n      swap3\n      swap2\n      pop\n      pop\n      jump\t// out\n        /* \"#utility.yul\":2276:2398   */\n    tag_99:\n        /* \"#utility.yul\":2349:2373   */\n      tag_145\n        /* \"#utility.yul\":2367:2372   */\n      dup2\n        /* \"#utility.yul\":2349:2373   */\n      tag_89\n      jump\t// in\n    tag_145:\n        /* \"#utility.yul\":2342:2347   */\n      dup2\n        /* \"#utility.yul\":2339:2374   */\n      eq\n        /* \"#utility.yul\":2329:2392   */\n      tag_146\n      jumpi\n        /* \"#utility.yul\":2388:2389   */\n      0x00\n        /* \"#utility.yul\":2385:2386   */\n      dup1\n        /* \"#utility.yul\":2378:2390   */\n      revert\n        /* \"#utility.yul\":2329:2392   */\n    tag_146:\n        /* \"#utility.yul\":2276:2398   */\n      pop\n      jump\t// out\n        /* \"#utility.yul\":2404:2543   */\n    tag_100:\n        /* \"#utility.yul\":2450:2455   */\n      0x00\n        /* \"#utility.yul\":2488:2494   */\n      dup2\n        /* \"#utility.yul\":2475:2495   */\n      calldataload\n        /* \"#utility.yul\":2466:2495   */\n      swap1\n      pop\n        /* \"#utility.yul\":2504:2537   */\n      tag_148\n        /* \"#utility.yul\":2531:2536   */\n      dup2\n        /* \"#utility.yul\":2504:2537   */\n      tag_99\n      jump\t// in\n    tag_148:\n        /* \"#utility.yul\":2404:2543   */\n      swap3\n      swap2\n      pop\n      pop\n      jump\t// out\n        /* \"#utility.yul\":2549:3168   */\n    tag_24:\n        /* \"#utility.yul\":2626:2632   */\n      0x00\n        /* \"#utility.yul\":2634:2640   */\n      dup1\n        /* \"#utility.yul\":2642:2648   */\n      0x00\n        /* \"#utility.yul\":2691:2693   */\n      0x60\n        /* \"#utility.yul\":2679:2688   */\n      dup5\n        /* \"#utility.yul\":2670:2677   */\n      dup7\n        /* \"#utility.yul\":2666:2689   */\n      sub\n        /* \"#utility.yul\":2662:2694   */\n      slt\n        /* \"#utility.yul\":2659:2778   */\n      iszero\n      tag_150\n      jumpi\n        /* \"#utility.yul\":2697:2776   */\n      tag_151\n      tag_92\n      jump\t// in\n    tag_151:\n        /* \"#utility.yul\":2659:2778   */\n    tag_150:\n        /* \"#utility.yul\":2817:2818   */\n      0x00\n        /* \"#utility.yul\":2842:2895   */\n      tag_152\n        /* \"#utility.yul\":2887:2894   */\n      dup7\n        /* \"#utility.yul\":2878:2884   */\n      dup3\n        /* \"#utility.yul\":2867:2876   */\n      dup8\n        /* \"#utility.yul\":2863:2885   */\n      add\n        /* \"#utility.yul\":2842:2895   */\n      tag_98\n      jump\t// in\n    tag_152:\n        /* \"#utility.yul\":2832:2895   */\n      swap4\n      pop\n        /* \"#utility.yul\":2788:2905   */\n      pop\n        /* \"#utility.yul\":2944:2946   */\n      0x20\n        /* \"#utility.yul\":2970:3023   */\n      tag_153\n        /* \"#utility.yul\":3015:3022   */\n      dup7\n        /* \"#utility.yul\":3006:3012   */\n      dup3\n        /* \"#utility.yul\":2995:3004   */\n      dup8\n        /* \"#utility.yul\":2991:3013   */\n      add\n        /* \"#utility.yul\":2970:3023   */\n      tag_100\n      jump\t// in\n    tag_153:\n        /* \"#utility.yul\":2960:3023   */\n      swap3\n      pop\n        /* \"#utility.yul\":2915:3033   */\n      pop\n        /* \"#utility.yul\":3072:3074   */\n      0x40\n        /* \"#utility.yul\":3098:3151   */\n      tag_154\n        /* \"#utility.yul\":3143:3150   */\n      dup7\n        /* \"#utility.yul\":3134:3140   */\n      dup3\n        /* \"#utility.yul\":3123:3132   */\n      dup8\n        /* \"#utility.yul\":3119:3141   */\n      add\n        /* \"#utility.yul\":3098:3151   */\n      tag_100\n      jump\t// in\n    tag_154:\n        /* \"#utility.yul\":3088:3151   */\n      swap2\n      pop\n        /* \"#utility.yul\":3043:3161   */\n      pop\n        /* \"#utility.yul\":2549:3168   */\n      swap3\n      pop\n      swap3\n      pop\n      swap3\n      jump\t// out\n        /* \"#utility.yul\":3174:3396   */\n    tag_27:\n        /* \"#utility.yul\":3267:3271   */\n      0x00\n        /* \"#utility.yul\":3305:3307   */\n      0x20\n        /* \"#utility.yul\":3294:3303   */\n      dup3\n        /* \"#utility.yul\":3290:3308   */\n      add\n        /* \"#utility.yul\":3282:3308   */\n      swap1\n      pop\n        /* \"#utility.yul\":3318:3389   */\n      tag_156\n        /* \"#utility.yul\":3386:3387   */\n      0x00\n        /* \"#utility.yul\":3375:3384   */\n      dup4\n        /* \"#utility.yul\":3371:3388   */\n      add\n        /* \"#utility.yul\":3362:3368   */\n      dup5\n        /* \"#utility.yul\":3318:3389   */\n      tag_90\n      jump\t// in\n    tag_156:\n        /* \"#utility.yul\":3174:3396   */\n      swap3\n      swap2\n      pop\n      pop\n      jump\t// out\n        /* \"#utility.yul\":3402:3731   */\n    tag_35:\n        /* \"#utility.yul\":3461:3467   */\n      0x00\n        /* \"#utility.yul\":3510:3512   */\n      0x20\n        /* \"#utility.yul\":3498:3507   */\n      dup3\n        /* \"#utility.yul\":3489:3496   */\n      dup5\n        /* \"#utility.yul\":3485:3508   */\n      sub\n        /* \"#utility.yul\":3481:3513   */\n      slt\n        /* \"#utility.yul\":3478:3597   */\n      iszero\n      tag_158\n      jumpi\n        /* \"#utility.yul\":3516:3595   */\n      tag_159\n      tag_92\n      jump\t// in\n    tag_159:\n        /* \"#utility.yul\":3478:3597   */\n    tag_158:\n        /* \"#utility.yul\":3636:3637   */\n      0x00\n        /* \"#utility.yul\":3661:3714   */\n      tag_160\n        /* \"#utility.yul\":3706:3713   */\n      dup5\n        /* \"#utility.yul\":3697:3703   */\n      dup3\n        /* \"#utility.yul\":3686:3695   */\n      dup6\n        /* \"#utility.yul\":3682:3704   */\n      add\n        /* \"#utility.yul\":3661:3714   */\n      tag_100\n      jump\t// in\n    tag_160:\n        /* \"#utility.yul\":3651:3714   */\n      swap2\n      pop\n        /* \"#utility.yul\":3607:3724   */\n      pop\n        /* \"#utility.yul\":3402:3731   */\n      swap3\n      swap2\n      pop\n      pop\n      jump\t// out\n        /* \"#utility.yul\":3737:3959   */\n    tag_38:\n        /* \"#utility.yul\":3830:3834   */\n      0x00\n        /* \"#utility.yul\":3868:3870   */\n      0x20\n        /* \"#utility.yul\":3857:3866   */\n      dup3\n        /* \"#utility.yul\":3853:3871   */\n      add\n        /* \"#utility.yul\":3845:3871   */\n      swap1\n      pop\n        /* \"#utility.yul\":3881:3952   */\n      tag_162\n        /* \"#utility.yul\":3949:3950   */\n      0x00\n        /* \"#utility.yul\":3938:3947   */\n      dup4\n        /* \"#utility.yul\":3934:3951   */\n      add\n        /* \"#utility.yul\":3925:3931   */\n      dup5\n        /* \"#utility.yul\":3881:3952   */\n      tag_88\n      jump\t// in\n    tag_162:\n        /* \"#utility.yul\":3737:3959   */\n      swap3\n      swap2\n      pop\n      pop\n      jump\t// out\n        /* \"#utility.yul\":3965:4294   */\n    tag_42:\n        /* \"#utility.yul\":4024:4030   */\n      0x00\n        /* \"#utility.yul\":4073:4075   */\n      0x20\n        /* \"#utility.yul\":4061:4070   */\n      dup3\n        /* \"#utility.yul\":4052:4059   */\n      dup5\n        /* \"#utility.yul\":4048:4071   */\n      sub\n        /* \"#utility.yul\":4044:4076   */\n      slt\n        /* \"#utility.yul\":4041:4160   */\n      iszero\n      tag_164\n      jumpi\n        /* \"#utility.yul\":4079:4158   */\n      tag_165\n      tag_92\n      jump\t// in\n    tag_165:\n        /* \"#utility.yul\":4041:4160   */\n    tag_164:\n        /* \"#utility.yul\":4199:4200   */\n      0x00\n        /* \"#utility.yul\":4224:4277   */\n      tag_166\n        /* \"#utility.yul\":4269:4276   */\n      dup5\n        /* \"#utility.yul\":4260:4266   */\n      dup3\n        /* \"#utility.yul\":4249:4258   */\n      dup6\n        /* \"#utility.yul\":4245:4267   */\n      add\n        /* \"#utility.yul\":4224:4277   */\n      tag_98\n      jump\t// in\n    tag_166:\n        /* \"#utility.yul\":4214:4277   */\n      swap2\n      pop\n        /* \"#utility.yul\":4170:4287   */\n      pop\n        /* \"#utility.yul\":3965:4294   */\n      swap3\n      swap2\n      pop\n      pop\n      jump\t// out\n        /* \"#utility.yul\":4300:4469   */\n    tag_101:\n        /* \"#utility.yul\":4384:4395   */\n      0x00\n        /* \"#utility.yul\":4418:4424   */\n      dup3\n        /* \"#utility.yul\":4413:4416   */\n      dup3\n        /* \"#utility.yul\":4406:4425   */\n      mstore\n        /* \"#utility.yul\":4458:4462   */\n      0x20\n        /* \"#utility.yul\":4453:4456   */\n      dup3\n        /* \"#utility.yul\":4449:4463   */\n      add\n        /* \"#utility.yul\":4434:4463   */\n      swap1\n      pop\n        /* \"#utility.yul\":4300:4469   */\n      swap3\n      swap2\n      pop\n      pop\n      jump\t// out\n        /* \"#utility.yul\":4475:4700   */\n    tag_102:\n        /* \"#utility.yul\":4615:4649   */\n      0x5061796d656e7453706c69747465723a206163636f756e7420686173206e6f20\n        /* \"#utility.yul\":4611:4612   */\n      0x00\n        /* \"#utility.yul\":4603:4609   */\n      dup3\n        /* \"#utility.yul\":4599:4613   */\n      add\n        /* \"#utility.yul\":4592:4650   */\n      mstore\n        /* \"#utility.yul\":4684:4692   */\n      0x7368617265730000000000000000000000000000000000000000000000000000\n        /* \"#utility.yul\":4679:4681   */\n      0x20\n        /* \"#utility.yul\":4671:4677   */\n      dup3\n        /* \"#utility.yul\":4667:4682   */\n      add\n        /* \"#utility.yul\":4660:4693   */\n      mstore\n        /* \"#utility.yul\":4475:4700   */\n      pop\n      jump\t// out\n        /* \"#utility.yul\":4706:5072   */\n    tag_103:\n        /* \"#utility.yul\":4848:4851   */\n      0x00\n        /* \"#utility.yul\":4869:4936   */\n      tag_170\n        /* \"#utility.yul\":4933:4935   */\n      0x26\n        /* \"#utility.yul\":4928:4931   */\n      dup4\n        /* \"#utility.yul\":4869:4936   */\n      tag_101\n      jump\t// in\n    tag_170:\n        /* \"#utility.yul\":4862:4936   */\n      swap2\n      pop\n        /* \"#utility.yul\":4945:5038   */\n      tag_171\n        /* \"#utility.yul\":5034:5037   */\n      dup3\n        /* \"#utility.yul\":4945:5038   */\n      tag_102\n      jump\t// in\n    tag_171:\n        /* \"#utility.yul\":5063:5065   */\n      0x40\n        /* \"#utility.yul\":5058:5061   */\n      dup3\n        /* \"#utility.yul\":5054:5066   */\n      add\n        /* \"#utility.yul\":5047:5066   */\n      swap1\n      pop\n        /* \"#utility.yul\":4706:5072   */\n      swap2\n      swap1\n      pop\n      jump\t// out\n        /* \"#utility.yul\":5078:5497   */\n    tag_62:\n        /* \"#utility.yul\":5244:5248   */\n      0x00\n        /* \"#utility.yul\":5282:5284   */\n      0x20\n        /* \"#utility.yul\":5271:5280   */\n      dup3\n        /* \"#utility.yul\":5267:5285   */\n      add\n        /* \"#utility.yul\":5259:5285   */\n      swap1\n      pop\n        /* \"#utility.yul\":5331:5340   */\n      dup2\n        /* \"#utility.yul\":5325:5329   */\n      dup2\n        /* \"#utility.yul\":5321:5341   */\n      sub\n        /* \"#utility.yul\":5317:5318   */\n      0x00\n        /* \"#utility.yul\":5306:5315   */\n      dup4\n        /* \"#utility.yul\":5302:5319   */\n      add\n        /* \"#utility.yul\":5295:5342   */\n      mstore\n        /* \"#utility.yul\":5359:5490   */\n      tag_173\n        /* \"#utility.yul\":5485:5489   */\n      dup2\n        /* \"#utility.yul\":5359:5490   */\n      tag_103\n      jump\t// in\n    tag_173:\n        /* \"#utility.yul\":5351:5490   */\n      swap1\n      pop\n        /* \"#utility.yul\":5078:5497   */\n      swap2\n      swap1\n      pop\n      jump\t// out\n        /* \"#utility.yul\":5503:5733   */\n    tag_104:\n        /* \"#utility.yul\":5643:5677   */\n      0x5061796d656e7453706c69747465723a206163636f756e74206973206e6f7420\n        /* \"#utility.yul\":5639:5640   */\n      0x00\n        /* \"#utility.yul\":5631:5637   */\n      dup3\n        /* \"#utility.yul\":5627:5641   */\n      add\n        /* \"#utility.yul\":5620:5678   */\n      mstore\n        /* \"#utility.yul\":5712:5725   */\n      0x647565207061796d656e74000000000000000000000000000000000000000000\n        /* \"#utility.yul\":5707:5709   */\n      0x20\n        /* \"#utility.yul\":5699:5705   */\n      dup3\n        /* \"#utility.yul\":5695:5710   */\n      add\n        /* \"#utility.yul\":5688:5726   */\n      mstore\n        /* \"#utility.yul\":5503:5733   */\n      pop\n      jump\t// out\n        /* \"#utility.yul\":5739:6105   */\n    tag_105:\n        /* \"#utility.yul\":5881:5884   */\n      0x00\n        /* \"#utility.yul\":5902:5969   */\n      tag_176\n        /* \"#utility.yul\":5966:5968   */\n      0x2b\n        /* \"#utility.yul\":5961:5964   */\n      dup4\n        /* \"#utility.yul\":5902:5969   */\n      tag_101\n      jump\t// in\n    tag_176:\n        /* \"#utility.yul\":5895:5969   */\n      swap2\n      pop\n        /* \"#utility.yul\":5978:6071   */\n      tag_177\n        /* \"#utility.yul\":6067:6070   */\n      dup3\n        /* \"#utility.yul\":5978:6071   */\n      tag_104\n      jump\t// in\n    tag_177:\n        /* \"#utility.yul\":6096:6098   */\n      0x40\n        /* \"#utility.yul\":6091:6094   */\n      dup3\n        /* \"#utility.yul\":6087:6099   */\n      add\n        /* \"#utility.yul\":6080:6099   */\n      swap1\n      pop\n        /* \"#utility.yul\":5739:6105   */\n      swap2\n      swap1\n      pop\n      jump\t// out\n        /* \"#utility.yul\":6111:6530   */\n    tag_66:\n        /* \"#utility.yul\":6277:6281   */\n      0x00\n        /* \"#utility.yul\":6315:6317   */\n      0x20\n        /* \"#utility.yul\":6304:6313   */\n      dup3\n        /* \"#utility.yul\":6300:6318   */\n      add\n        /* \"#utility.yul\":6292:6318   */\n      swap1\n      pop\n        /* \"#utility.yul\":6364:6373   */\n      dup2\n        /* \"#utility.yul\":6358:6362   */\n      dup2\n        /* \"#utility.yul\":6354:6374   */\n      sub\n        /* \"#utility.yul\":6350:6351   */\n      0x00\n        /* \"#utility.yul\":6339:6348   */\n      dup4\n        /* \"#utility.yul\":6335:6352   */\n      add\n        /* \"#utility.yul\":6328:6375   */\n      mstore\n        /* \"#utility.yul\":6392:6523   */\n      tag_179\n        /* \"#utility.yul\":6518:6522   */\n      dup2\n        /* \"#utility.yul\":6392:6523   */\n      tag_105\n      jump\t// in\n    tag_179:\n        /* \"#utility.yul\":6384:6523   */\n      swap1\n      pop\n        /* \"#utility.yul\":6111:6530   */\n      swap2\n      swap1\n      pop\n      jump\t// out\n        /* \"#utility.yul\":6536:6716   */\n    tag_106:\n        /* \"#utility.yul\":6584:6661   */\n      0x4e487b7100000000000000000000000000000000000000000000000000000000\n        /* \"#utility.yul\":6581:6582   */\n      0x00\n        /* \"#utility.yul\":6574:6662   */\n      mstore\n        /* \"#utility.yul\":6681:6685   */\n      0x11\n        /* \"#utility.yul\":6678:6679   */\n      0x04\n        /* \"#utility.yul\":6671:6686   */\n      mstore\n        /* \"#utility.yul\":6705:6709   */\n      0x24\n        /* \"#utility.yul\":6702:6703   */\n      0x00\n        /* \"#utility.yul\":6695:6710   */\n      revert\n        /* \"#utility.yul\":6722:6913   */\n    tag_68:\n        /* \"#utility.yul\":6762:6765   */\n      0x00\n        /* \"#utility.yul\":6781:6801   */\n      tag_182\n        /* \"#utility.yul\":6799:6800   */\n      dup3\n        /* \"#utility.yul\":6781:6801   */\n      tag_89\n      jump\t// in\n    tag_182:\n        /* \"#utility.yul\":6776:6801   */\n      swap2\n      pop\n        /* \"#utility.yul\":6815:6835   */\n      tag_183\n        /* \"#utility.yul\":6833:6834   */\n      dup4\n        /* \"#utility.yul\":6815:6835   */\n      tag_89\n      jump\t// in\n    tag_183:\n        /* \"#utility.yul\":6810:6835   */\n      swap3\n      pop\n        /* \"#utility.yul\":6858:6859   */\n      dup3\n        /* \"#utility.yul\":6855:6856   */\n      dup3\n        /* \"#utility.yul\":6851:6860   */\n      add\n        /* \"#utility.yul\":6844:6860   */\n      swap1\n      pop\n        /* \"#utility.yul\":6879:6882   */\n      dup1\n        /* \"#utility.yul\":6876:6877   */\n      dup3\n        /* \"#utility.yul\":6873:6883   */\n      gt\n        /* \"#utility.yul\":6870:6906   */\n      iszero\n      tag_184\n      jumpi\n        /* \"#utility.yul\":6886:6904   */\n      tag_185\n      tag_106\n      jump\t// in\n    tag_185:\n        /* \"#utility.yul\":6870:6906   */\n    tag_184:\n        /* \"#utility.yul\":6722:6913   */\n      swap3\n      swap2\n      pop\n      pop\n      jump\t// out\n        /* \"#utility.yul\":6919:6979   */\n    tag_107:\n        /* \"#utility.yul\":6947:6950   */\n      0x00\n        /* \"#utility.yul\":6968:6973   */\n      dup2\n        /* \"#utility.yul\":6961:6973   */\n      swap1\n      pop\n        /* \"#utility.yul\":6919:6979   */\n      swap2\n      swap1\n      pop\n      jump\t// out\n        /* \"#utility.yul\":6985:7127   */\n    tag_108:\n        /* \"#utility.yul\":7035:7044   */\n      0x00\n        /* \"#utility.yul\":7068:7121   */\n      tag_188\n        /* \"#utility.yul\":7086:7120   */\n      tag_189\n        /* \"#utility.yul\":7095:7119   */\n      tag_190\n        /* \"#utility.yul\":7113:7118   */\n      dup5\n        /* \"#utility.yul\":7095:7119   */\n      tag_86\n      jump\t// in\n    tag_190:\n        /* \"#utility.yul\":7086:7120   */\n      tag_107\n      jump\t// in\n    tag_189:\n        /* \"#utility.yul\":7068:7121   */\n      tag_86\n      jump\t// in\n    tag_188:\n        /* \"#utility.yul\":7055:7121   */\n      swap1\n      pop\n        /* \"#utility.yul\":6985:7127   */\n      swap2\n      swap1\n      pop\n      jump\t// out\n        /* \"#utility.yul\":7133:7259   */\n    tag_109:\n        /* \"#utility.yul\":7183:7192   */\n      0x00\n        /* \"#utility.yul\":7216:7253   */\n      tag_192\n        /* \"#utility.yul\":7247:7252   */\n      dup3\n        /* \"#utility.yul\":7216:7253   */\n      tag_108\n      jump\t// in\n    tag_192:\n        /* \"#utility.yul\":7203:7253   */\n      swap1\n      pop\n        /* \"#utility.yul\":7133:7259   */\n      swap2\n      swap1\n      pop\n      jump\t// out\n        /* \"#utility.yul\":7265:7399   */\n    tag_110:\n        /* \"#utility.yul\":7323:7332   */\n      0x00\n        /* \"#utility.yul\":7356:7393   */\n      tag_194\n        /* \"#utility.yul\":7387:7392   */\n      dup3\n        /* \"#utility.yul\":7356:7393   */\n      tag_109\n      jump\t// in\n    tag_194:\n        /* \"#utility.yul\":7343:7393   */\n      swap1\n      pop\n        /* \"#utility.yul\":7265:7399   */\n      swap2\n      swap1\n      pop\n      jump\t// out\n        /* \"#utility.yul\":7405:7552   */\n    tag_111:\n        /* \"#utility.yul\":7500:7545   */\n      tag_196\n        /* \"#utility.yul\":7539:7544   */\n      dup2\n        /* \"#utility.yul\":7500:7545   */\n      tag_110\n      jump\t// in\n    tag_196:\n        /* \"#utility.yul\":7495:7498   */\n      dup3\n        /* \"#utility.yul\":7488:7546   */\n      mstore\n        /* \"#utility.yul\":7405:7552   */\n      pop\n      pop\n      jump\t// out\n        /* \"#utility.yul\":7558:7906   */\n    tag_73:\n        /* \"#utility.yul\":7687:7691   */\n      0x00\n        /* \"#utility.yul\":7725:7727   */\n      0x40\n        /* \"#utility.yul\":7714:7723   */\n      dup3\n        /* \"#utility.yul\":7710:7728   */\n      add\n        /* \"#utility.yul\":7702:7728   */\n      swap1\n      pop\n        /* \"#utility.yul\":7738:7817   */\n      tag_198\n        /* \"#utility.yul\":7814:7815   */\n      0x00\n        /* \"#utility.yul\":7803:7812   */\n      dup4\n        /* \"#utility.yul\":7799:7816   */\n      add\n        /* \"#utility.yul\":7790:7796   */\n      dup6\n        /* \"#utility.yul\":7738:7817   */\n      tag_111\n      jump\t// in\n    tag_198:\n        /* \"#utility.yul\":7827:7899   */\n      tag_199\n        /* \"#utility.yul\":7895:7897   */\n      0x20\n        /* \"#utility.yul\":7884:7893   */\n      dup4\n        /* \"#utility.yul\":7880:7898   */\n      add\n        /* \"#utility.yul\":7871:7877   */\n      dup5\n        /* \"#utility.yul\":7827:7899   */\n      tag_90\n      jump\t// in\n    tag_199:\n        /* \"#utility.yul\":7558:7906   */\n      swap4\n      swap3\n      pop\n      pop\n      pop\n      jump\t// out\n        /* \"#utility.yul\":7912:8322   */\n    tag_76:\n        /* \"#utility.yul\":7952:7959   */\n      0x00\n        /* \"#utility.yul\":7975:7995   */\n      tag_201\n        /* \"#utility.yul\":7993:7994   */\n      dup3\n        /* \"#utility.yul\":7975:7995   */\n      tag_89\n      jump\t// in\n    tag_201:\n        /* \"#utility.yul\":7970:7995   */\n      swap2\n      pop\n        /* \"#utility.yul\":8009:8029   */\n      tag_202\n        /* \"#utility.yul\":8027:8028   */\n      dup4\n        /* \"#utility.yul\":8009:8029   */\n      tag_89\n      jump\t// in\n    tag_202:\n        /* \"#utility.yul\":8004:8029   */\n      swap3\n      pop\n        /* \"#utility.yul\":8064:8065   */\n      dup3\n        /* \"#utility.yul\":8061:8062   */\n      dup3\n        /* \"#utility.yul\":8057:8066   */\n      mul\n        /* \"#utility.yul\":8086:8116   */\n      tag_203\n        /* \"#utility.yul\":8104:8115   */\n      dup2\n        /* \"#utility.yul\":8086:8116   */\n      tag_89\n      jump\t// in\n    tag_203:\n        /* \"#utility.yul\":8075:8116   */\n      swap2\n      pop\n        /* \"#utility.yul\":8265:8266   */\n      dup3\n        /* \"#utility.yul\":8256:8263   */\n      dup3\n        /* \"#utility.yul\":8252:8267   */\n      div\n        /* \"#utility.yul\":8249:8250   */\n      dup5\n        /* \"#utility.yul\":8246:8268   */\n      eq\n        /* \"#utility.yul\":8226:8227   */\n      dup4\n        /* \"#utility.yul\":8219:8228   */\n      iszero\n        /* \"#utility.yul\":8199:8282   */\n      or\n        /* \"#utility.yul\":8176:8315   */\n      tag_204\n      jumpi\n        /* \"#utility.yul\":8295:8313   */\n      tag_205\n      tag_106\n      jump\t// in\n    tag_205:\n        /* \"#utility.yul\":8176:8315   */\n    tag_204:\n        /* \"#utility.yul\":7960:8322   */\n      pop\n        /* \"#utility.yul\":7912:8322   */\n      swap3\n      swap2\n      pop\n      pop\n      jump\t// out\n        /* \"#utility.yul\":8328:8508   */\n    tag_112:\n        /* \"#utility.yul\":8376:8453   */\n      0x4e487b7100000000000000000000000000000000000000000000000000000000\n        /* \"#utility.yul\":8373:8374   */\n      0x00\n        /* \"#utility.yul\":8366:8454   */\n      mstore\n        /* \"#utility.yul\":8473:8477   */\n      0x12\n        /* \"#utility.yul\":8470:8471   */\n      0x04\n        /* \"#utility.yul\":8463:8478   */\n      mstore\n        /* \"#utility.yul\":8497:8501   */\n      0x24\n        /* \"#utility.yul\":8494:8495   */\n      0x00\n        /* \"#utility.yul\":8487:8502   */\n      revert\n        /* \"#utility.yul\":8514:8699   */\n    tag_78:\n        /* \"#utility.yul\":8554:8555   */\n      0x00\n        /* \"#utility.yul\":8571:8591   */\n      tag_208\n        /* \"#utility.yul\":8589:8590   */\n      dup3\n        /* \"#utility.yul\":8571:8591   */\n      tag_89\n      jump\t// in\n    tag_208:\n        /* \"#utility.yul\":8566:8591   */\n      swap2\n      pop\n        /* \"#utility.yul\":8605:8625   */\n      tag_209\n        /* \"#utility.yul\":8623:8624   */\n      dup4\n        /* \"#utility.yul\":8605:8625   */\n      tag_89\n      jump\t// in\n    tag_209:\n        /* \"#utility.yul\":8600:8625   */\n      swap3\n      pop\n        /* \"#utility.yul\":8644:8645   */\n      dup3\n        /* \"#utility.yul\":8634:8669   */\n      tag_210\n      jumpi\n        /* \"#utility.yul\":8649:8667   */\n      tag_211\n      tag_112\n      jump\t// in\n    tag_211:\n        /* \"#utility.yul\":8634:8669   */\n    tag_210:\n        /* \"#utility.yul\":8691:8692   */\n      dup3\n        /* \"#utility.yul\":8688:8689   */\n      dup3\n        /* \"#utility.yul\":8684:8693   */\n      div\n        /* \"#utility.yul\":8679:8693   */\n      swap1\n      pop\n        /* \"#utility.yul\":8514:8699   */\n      swap3\n      swap2\n      pop\n      pop\n      jump\t// out\n        /* \"#utility.yul\":8705:8899   */\n    tag_80:\n        /* \"#utility.yul\":8745:8749   */\n      0x00\n        /* \"#utility.yul\":8765:8785   */\n      tag_213\n        /* \"#utility.yul\":8783:8784   */\n      dup3\n        /* \"#utility.yul\":8765:8785   */\n      tag_89\n      jump\t// in\n    tag_213:\n        /* \"#utility.yul\":8760:8785   */\n      swap2\n      pop\n        /* \"#utility.yul\":8799:8819   */\n      tag_214\n        /* \"#utility.yul\":8817:8818   */\n      dup4\n        /* \"#utility.yul\":8799:8819   */\n      tag_89\n      jump\t// in\n    tag_214:\n        /* \"#utility.yul\":8794:8819   */\n      swap3\n      pop\n        /* \"#utility.yul\":8843:8844   */\n      dup3\n        /* \"#utility.yul\":8840:8841   */\n      dup3\n        /* \"#utility.yul\":8836:8845   */\n      sub\n        /* \"#utility.yul\":8828:8845   */\n      swap1\n      pop\n        /* \"#utility.yul\":8867:8868   */\n      dup2\n        /* \"#utility.yul\":8861:8865   */\n      dup2\n        /* \"#utility.yul\":8858:8869   */\n      gt\n        /* \"#utility.yul\":8855:8892   */\n      iszero\n      tag_215\n      jumpi\n        /* \"#utility.yul\":8872:8890   */\n      tag_216\n      tag_106\n      jump\t// in\n    tag_216:\n        /* \"#utility.yul\":8855:8892   */\n    tag_215:\n        /* \"#utility.yul\":8705:8899   */\n      swap3\n      swap2\n      pop\n      pop\n      jump\t// out\n\n    auxdata: 0xa26469706673582212202302f1035216602d5176caf700f1da011b2cd5ebc49d890321bc87e08dc8bddb64736f6c634300081a0033\n}\n",
				"bytecode": {
					"linkReferences": {},
					"object": "608060405260405161144a38038061144a833981810160405281019061002591906105e3565b8051825114610069576040517f08c379a0000000000000000000000000000000000000000000000000000000008152600401610060906106d9565b60405180910390fd5b5f8251116100ac576040517f08c379a00000000000000000000000000000000000000000000000000000000081526004016100a390610741565b60405180910390fd5b5f5b8251811015610108576100fb8382815181106100cd576100cc61075f565b5b60200260200101518383815181106100e8576100e761075f565b5b602002602001015161011060201b60201c565b80806001019150506100ae565b5050506109b5565b5f73ffffffffffffffffffffffffffffffffffffffff168273ffffffffffffffffffffffffffffffffffffffff160361017e576040517f08c379a0000000000000000000000000000000000000000000000000000000008152600401610175906107fc565b60405180910390fd5b5f81116101c0576040517f08c379a00000000000000000000000000000000000000000000000000000000081526004016101b790610864565b60405180910390fd5b5f60025f8473ffffffffffffffffffffffffffffffffffffffff1673ffffffffffffffffffffffffffffffffffffffff1681526020019081526020015f20541461023f576040517f08c379a0000000000000000000000000000000000000000000000000000000008152600401610236906108f2565b60405180910390fd5b600482908060018154018082558091505060019003905f5260205f20015f9091909190916101000a81548173ffffffffffffffffffffffffffffffffffffffff021916908373ffffffffffffffffffffffffffffffffffffffff1602179055508060025f8473ffffffffffffffffffffffffffffffffffffffff1673ffffffffffffffffffffffffffffffffffffffff1681526020019081526020015f2081905550805f808282546102f1919061093d565b925050819055507f40c340f65e17194d14ddddb073d3c9f888e3cb52b5aae0c6c7706b4fbc905fac828260405161032992919061098e565b60405180910390a15050565b5f604051905090565b5f80fd5b5f80fd5b5f80fd5b5f601f19601f8301169050919050565b7f4e487b71000000000000000000000000000000000000000000000000000000005f52604160045260245ffd5b6103908261034a565b810181811067ffffffffffffffff821117156103af576103ae61035a565b5b80604052505050565b5f6103c1610335565b90506103cd8282610387565b919050565b5f67ffffffffffffffff8211156103ec576103eb61035a565b5b602082029050602081019050919050565b5f80fd5b5f73ffffffffffffffffffffffffffffffffffffffff82169050919050565b5f61042a82610401565b9050919050565b61043a81610420565b8114610444575f80fd5b50565b5f8151905061045581610431565b92915050565b5f61046d610468846103d2565b6103b8565b905080838252602082019050602084028301858111156104905761048f6103fd565b5b835b818110156104b957806104a58882610447565b845260208401935050602081019050610492565b5050509392505050565b5f82601f8301126104d7576104d6610346565b5b81516104e784826020860161045b565b91505092915050565b5f67ffffffffffffffff82111561050a5761050961035a565b5b602082029050602081019050919050565b5f819050919050565b61052d8161051b565b8114610537575f80fd5b50565b5f8151905061054881610524565b92915050565b5f61056061055b846104f0565b6103b8565b90508083825260208201905060208402830185811115610583576105826103fd565b5b835b818110156105ac5780610598888261053a565b845260208401935050602081019050610585565b5050509392505050565b5f82601f8301126105ca576105c9610346565b5b81516105da84826020860161054e565b91505092915050565b5f80604083850312156105f9576105f861033e565b5b5f83015167ffffffffffffffff81111561061657610615610342565b5b610622858286016104c3565b925050602083015167ffffffffffffffff81111561064357610642610342565b5b61064f858286016105b6565b9150509250929050565b5f82825260208201905092915050565b7f70617965657320616e6420736861726573206c656e677468206d69736d6174635f8201527f6800000000000000000000000000000000000000000000000000000000000000602082015250565b5f6106c3602183610659565b91506106ce82610669565b604082019050919050565b5f6020820190508181035f8301526106f0816106b7565b9050919050565b7f6e6f2070617965657300000000000000000000000000000000000000000000005f82015250565b5f61072b600983610659565b9150610736826106f7565b602082019050919050565b5f6020820190508181035f8301526107588161071f565b9050919050565b7f4e487b71000000000000000000000000000000000000000000000000000000005f52603260045260245ffd5b7f5061796d656e7453706c69747465723a206163636f756e7420697320746865205f8201527f7a65726f20616464726573730000000000000000000000000000000000000000602082015250565b5f6107e6602c83610659565b91506107f18261078c565b604082019050919050565b5f6020820190508181035f830152610813816107da565b9050919050565b7f5061796d656e7453706c69747465723a207368617265732061726520300000005f82015250565b5f61084e601d83610659565b91506108598261081a565b602082019050919050565b5f6020820190508181035f83015261087b81610842565b9050919050565b7f5061796d656e7453706c69747465723a206163636f756e7420616c72656164795f8201527f2068617320736861726573000000000000000000000000000000000000000000602082015250565b5f6108dc602b83610659565b91506108e782610882565b604082019050919050565b5f6020820190508181035f830152610909816108d0565b9050919050565b7f4e487b71000000000000000000000000000000000000000000000000000000005f52601160045260245ffd5b5f6109478261051b565b91506109528361051b565b925082820190508082111561096a57610969610910565b5b92915050565b61097981610420565b82525050565b6109888161051b565b82525050565b5f6040820190506109a15f830185610970565b6109ae602083018461097f565b9392505050565b610a88806109c25f395ff3fe60806040526004361061007e575f3560e01c80639852595c1161004d5780639852595c1461018c578063a3f8eace146101c8578063ce7c2ac214610204578063e33b7de314610240576100be565b806319165587146100c25780631b51003d146100ea5780633a98ef391461012657806363037b0c14610150576100be565b366100be577f6ef95f06320e7a25a04a175ca677b7052bdd97131872c2192525a629f51be77033346040516100b49291906105b6565b60405180910390a1005b5f80fd5b3480156100cd575f80fd5b506100e860048036038101906100e3919061061c565b61026a565b005b3480156100f5575f80fd5b50610110600480360381019061010b919061069b565b610423565b60405161011d91906106eb565b60405180910390f35b348015610131575f80fd5b5061013a61048d565b60405161014791906106eb565b60405180910390f35b34801561015b575f80fd5b5061017660048036038101906101719190610704565b610492565b604051610183919061072f565b60405180910390f35b348015610197575f80fd5b506101b260048036038101906101ad9190610748565b6104cd565b6040516101bf91906106eb565b60405180910390f35b3480156101d3575f80fd5b506101ee60048036038101906101e99190610748565b6104e2565b6040516101fb91906106eb565b60405180910390f35b34801561020f575f80fd5b5061022a60048036038101906102259190610748565b610544565b60405161023791906106eb565b60405180910390f35b34801561024b575f80fd5b50610254610559565b60405161026191906106eb565b60405180910390f35b5f60025f8373ffffffffffffffffffffffffffffffffffffffff1673ffffffffffffffffffffffffffffffffffffffff1681526020019081526020015f2054116102e9576040517f08c379a00000000000000000000000000000000000000000000000000000000081526004016102e0906107f3565b60405180910390fd5b5f6102f3826104e2565b90505f8103610337576040517f08c379a000000000000000000000000000000000000000000000000000000000815260040161032e90610881565b60405180910390fd5b8060015f82825461034891906108cc565b925050819055508060035f8473ffffffffffffffffffffffffffffffffffffffff1673ffffffffffffffffffffffffffffffffffffffff1681526020019081526020015f205f82825461039b91906108cc565b925050819055508173ffffffffffffffffffffffffffffffffffffffff166108fc8290811502906040515f60405180830381858888f193505050501580156103e5573d5f803e3d5ffd5b507fdf20fd1e76bc69d672e4814fafb2c449bba3a5369d8359adf9e05e6fde87b056828260405161041792919061095a565b60405180910390a15050565b5f815f5460025f8773ffffffffffffffffffffffffffffffffffffffff1673ffffffffffffffffffffffffffffffffffffffff1681526020019081526020015f2054856104709190610981565b61047a91906109ef565b6104849190610a1f565b90509392505050565b5f5481565b600481815481106104a1575f80fd5b905f5260205f20015f915054906101000a900473ffffffffffffffffffffffffffffffffffffffff1681565b6003602052805f5260405f205f915090505481565b5f80600154476104f291906108cc565b905061053c838260035f8773ffffffffffffffffffffffffffffffffffffffff1673ffffffffffffffffffffffffffffffffffffffff1681526020019081526020015f2054610423565b915050919050565b6002602052805f5260405f205f915090505481565b60015481565b5f73ffffffffffffffffffffffffffffffffffffffff82169050919050565b5f6105888261055f565b9050919050565b6105988161057e565b82525050565b5f819050919050565b6105b08161059e565b82525050565b5f6040820190506105c95f83018561058f565b6105d660208301846105a7565b9392505050565b5f80fd5b5f6105eb8261055f565b9050919050565b6105fb816105e1565b8114610605575f80fd5b50565b5f81359050610616816105f2565b92915050565b5f60208284031215610631576106306105dd565b5b5f61063e84828501610608565b91505092915050565b6106508161057e565b811461065a575f80fd5b50565b5f8135905061066b81610647565b92915050565b61067a8161059e565b8114610684575f80fd5b50565b5f8135905061069581610671565b92915050565b5f805f606084860312156106b2576106b16105dd565b5b5f6106bf8682870161065d565b93505060206106d086828701610687565b92505060406106e186828701610687565b9150509250925092565b5f6020820190506106fe5f8301846105a7565b92915050565b5f60208284031215610719576107186105dd565b5b5f61072684828501610687565b91505092915050565b5f6020820190506107425f83018461058f565b92915050565b5f6020828403121561075d5761075c6105dd565b5b5f61076a8482850161065d565b91505092915050565b5f82825260208201905092915050565b7f5061796d656e7453706c69747465723a206163636f756e7420686173206e6f205f8201527f7368617265730000000000000000000000000000000000000000000000000000602082015250565b5f6107dd602683610773565b91506107e882610783565b604082019050919050565b5f6020820190508181035f83015261080a816107d1565b9050919050565b7f5061796d656e7453706c69747465723a206163636f756e74206973206e6f74205f8201527f647565207061796d656e74000000000000000000000000000000000000000000602082015250565b5f61086b602b83610773565b915061087682610811565b604082019050919050565b5f6020820190508181035f8301526108988161085f565b9050919050565b7f4e487b71000000000000000000000000000000000000000000000000000000005f52601160045260245ffd5b5f6108d68261059e565b91506108e18361059e565b92508282019050808211156108f9576108f861089f565b5b92915050565b5f819050919050565b5f61092261091d6109188461055f565b6108ff565b61055f565b9050919050565b5f61093382610908565b9050919050565b5f61094482610929565b9050919050565b6109548161093a565b82525050565b5f60408201905061096d5f83018561094b565b61097a60208301846105a7565b9392505050565b5f61098b8261059e565b91506109968361059e565b92508282026109a48161059e565b915082820484148315176109bb576109ba61089f565b5b5092915050565b7f4e487b71000000000000000000000000000000000000000000000000000000005f52601260045260245ffd5b5f6109f98261059e565b9150610a048361059e565b925082610a1457610a136109c2565b5b828204905092915050565b5f610a298261059e565b9150610a348361059e565b9250828203905081811115610a4c57610a4b61089f565b5b9291505056fea26469706673582212202302f1035216602d5176caf700f1da011b2cd5ebc49d890321bc87e08dc8bddb64736f6c634300081a0033",
					"opcodes": "PUSH1 0x80 PUSH1 0x40 MSTORE PUSH1 0x40 MLOAD PUSH2 0x144A CODESIZE SUB DUP1 PUSH2 0x144A DUP4 CODECOPY DUP2 DUP2 ADD PUSH1 0x40 MSTORE DUP2 ADD SWAP1 PUSH2 0x25 SWAP2 SWAP1 PUSH2 0x5E3 JUMP JUMPDEST DUP1 MLOAD DUP3 MLOAD EQ PUSH2 0x69 JUMPI PUSH1 0x40 MLOAD PUSH32 0x8C379A000000000000000000000000000000000000000000000000000000000 DUP2 MSTORE PUSH1 0x4 ADD PUSH2 0x60 SWAP1 PUSH2 0x6D9 JUMP JUMPDEST PUSH1 0x40 MLOAD DUP1 SWAP2 SUB SWAP1 REVERT JUMPDEST PUSH0 DUP3 MLOAD GT PUSH2 0xAC JUMPI PUSH1 0x40 MLOAD PUSH32 0x8C379A000000000000000000000000000000000000000000000000000000000 DUP2 MSTORE PUSH1 0x4 ADD PUSH2 0xA3 SWAP1 PUSH2 0x741 JUMP JUMPDEST PUSH1 0x40 MLOAD DUP1 SWAP2 SUB SWAP1 REVERT JUMPDEST PUSH0 JUMPDEST DUP3 MLOAD DUP2 LT ISZERO PUSH2 0x108 JUMPI PUSH2 0xFB DUP4 DUP3 DUP2 MLOAD DUP2 LT PUSH2 0xCD JUMPI PUSH2 0xCC PUSH2 0x75F JUMP JUMPDEST JUMPDEST PUSH1 0x20 MUL PUSH1 0x20 ADD ADD MLOAD DUP4 DUP4 DUP2 MLOAD DUP2 LT PUSH2 0xE8 JUMPI PUSH2 0xE7 PUSH2 0x75F JUMP JUMPDEST JUMPDEST PUSH1 0x20 MUL PUSH1 0x20 ADD ADD MLOAD PUSH2 0x110 PUSH1 0x20 SHL PUSH1 0x20 SHR JUMP JUMPDEST DUP1 DUP1 PUSH1 0x1 ADD SWAP2 POP POP PUSH2 0xAE JUMP JUMPDEST POP POP POP PUSH2 0x9B5 JUMP JUMPDEST PUSH0 PUSH20 0xFFFFFFFFFFFFFFFFFFFFFFFFFFFFFFFFFFFFFFFF AND DUP3 PUSH20 0xFFFFFFFFFFFFFFFFFFFFFFFFFFFFFFFFFFFFFFFF AND SUB PUSH2 0x17E JUMPI PUSH1 0x40 MLOAD PUSH32 0x8C379A000000000000000000000000000000000000000000000000000000000 DUP2 MSTORE PUSH1 0x4 ADD PUSH2 0x175 SWAP1 PUSH2 0x7FC JUMP JUMPDEST PUSH1 0x40 MLOAD DUP1 SWAP2 SUB SWAP1 REVERT JUMPDEST PUSH0 DUP2 GT PUSH2 0x1C0 JUMPI PUSH1 0x40 MLOAD PUSH32 0x8C379A000000000000000000000000000000000000000000000000000000000 DUP2 MSTORE PUSH1 0x4 ADD PUSH2 0x1B7 SWAP1 PUSH2 0x864 JUMP JUMPDEST PUSH1 0x40 MLOAD DUP1 SWAP2 SUB SWAP1 REVERT JUMPDEST PUSH0 PUSH1 0x2 PUSH0 DUP5 PUSH20 0xFFFFFFFFFFFFFFFFFFFFFFFFFFFFFFFFFFFFFFFF AND PUSH20 0xFFFFFFFFFFFFFFFFFFFFFFFFFFFFFFFFFFFFFFFF AND DUP2 MSTORE PUSH1 0x20 ADD SWAP1 DUP2 MSTORE PUSH1 0x20 ADD PUSH0 KECCAK256 SLOAD EQ PUSH2 0x23F JUMPI PUSH1 0x40 MLOAD PUSH32 0x8C379A000000000000000000000000000000000000000000000000000000000 DUP2 MSTORE PUSH1 0x4 ADD PUSH2 0x236 SWAP1 PUSH2 0x8F2 JUMP JUMPDEST PUSH1 0x40 MLOAD DUP1 SWAP2 SUB SWAP1 REVERT JUMPDEST PUSH1 0x4 DUP3 SWAP1 DUP1 PUSH1 0x1 DUP2 SLOAD ADD DUP1 DUP3 SSTORE DUP1 SWAP2 POP POP PUSH1 0x1 SWAP1 SUB SWAP1 PUSH0 MSTORE PUSH1 0x20 PUSH0 KECCAK256 ADD PUSH0 SWAP1 SWAP2 SWAP1 SWAP2 SWAP1 SWAP2 PUSH2 0x100 EXP DUP2 SLOAD DUP2 PUSH20 0xFFFFFFFFFFFFFFFFFFFFFFFFFFFFFFFFFFFFFFFF MUL NOT AND SWAP1 DUP4 PUSH20 0xFFFFFFFFFFFFFFFFFFFFFFFFFFFFFFFFFFFFFFFF AND MUL OR SWAP1 SSTORE POP DUP1 PUSH1 0x2 PUSH0 DUP5 PUSH20 0xFFFFFFFFFFFFFFFFFFFFFFFFFFFFFFFFFFFFFFFF AND PUSH20 0xFFFFFFFFFFFFFFFFFFFFFFFFFFFFFFFFFFFFFFFF AND DUP2 MSTORE PUSH1 0x20 ADD SWAP1 DUP2 MSTORE PUSH1 0x20 ADD PUSH0 KECCAK256 DUP2 SWAP1 SSTORE POP DUP1 PUSH0 DUP1 DUP3 DUP3 SLOAD PUSH2 0x2F1 SWAP2 SWAP1 PUSH2 0x93D JUMP JUMPDEST SWAP3 POP POP DUP2 SWAP1 SSTORE POP PUSH32 0x40C340F65E17194D14DDDDB073D3C9F888E3CB52B5AAE0C6C7706B4FBC905FAC DUP3 DUP3 PUSH1 0x40 MLOAD PUSH2 0x329 SWAP3 SWAP2 SWAP1 PUSH2 0x98E JUMP JUMPDEST PUSH1 0x40 MLOAD DUP1 SWAP2 SUB SWAP1 LOG1 POP POP JUMP JUMPDEST PUSH0 PUSH1 0x40 MLOAD SWAP1 POP SWAP1 JUMP JUMPDEST PUSH0 DUP1 REVERT JUMPDEST PUSH0 DUP1 REVERT JUMPDEST PUSH0 DUP1 REVERT JUMPDEST PUSH0 PUSH1 0x1F NOT PUSH1 0x1F DUP4 ADD AND SWAP1 POP SWAP2 SWAP1 POP JUMP JUMPDEST PUSH32 0x4E487B7100000000000000000000000000000000000000000000000000000000 PUSH0 MSTORE PUSH1 0x41 PUSH1 0x4 MSTORE PUSH1 0x24 PUSH0 REVERT JUMPDEST PUSH2 0x390 DUP3 PUSH2 0x34A JUMP JUMPDEST DUP2 ADD DUP2 DUP2 LT PUSH8 0xFFFFFFFFFFFFFFFF DUP3 GT OR ISZERO PUSH2 0x3AF JUMPI PUSH2 0x3AE PUSH2 0x35A JUMP JUMPDEST JUMPDEST DUP1 PUSH1 0x40 MSTORE POP POP POP JUMP JUMPDEST PUSH0 PUSH2 0x3C1 PUSH2 0x335 JUMP JUMPDEST SWAP1 POP PUSH2 0x3CD DUP3 DUP3 PUSH2 0x387 JUMP JUMPDEST SWAP2 SWAP1 POP JUMP JUMPDEST PUSH0 PUSH8 0xFFFFFFFFFFFFFFFF DUP3 GT ISZERO PUSH2 0x3EC JUMPI PUSH2 0x3EB PUSH2 0x35A JUMP JUMPDEST JUMPDEST PUSH1 0x20 DUP3 MUL SWAP1 POP PUSH1 0x20 DUP2 ADD SWAP1 POP SWAP2 SWAP1 POP JUMP JUMPDEST PUSH0 DUP1 REVERT JUMPDEST PUSH0 PUSH20 0xFFFFFFFFFFFFFFFFFFFFFFFFFFFFFFFFFFFFFFFF DUP3 AND SWAP1 POP SWAP2 SWAP1 POP JUMP JUMPDEST PUSH0 PUSH2 0x42A DUP3 PUSH2 0x401 JUMP JUMPDEST SWAP1 POP SWAP2 SWAP1 POP JUMP JUMPDEST PUSH2 0x43A DUP2 PUSH2 0x420 JUMP JUMPDEST DUP2 EQ PUSH2 0x444 JUMPI PUSH0 DUP1 REVERT JUMPDEST POP JUMP JUMPDEST PUSH0 DUP2 MLOAD SWAP1 POP PUSH2 0x455 DUP2 PUSH2 0x431 JUMP JUMPDEST SWAP3 SWAP2 POP POP JUMP JUMPDEST PUSH0 PUSH2 0x46D PUSH2 0x468 DUP5 PUSH2 0x3D2 JUMP JUMPDEST PUSH2 0x3B8 JUMP JUMPDEST SWAP1 POP DUP1 DUP4 DUP3 MSTORE PUSH1 0x20 DUP3 ADD SWAP1 POP PUSH1 0x20 DUP5 MUL DUP4 ADD DUP6 DUP2 GT ISZERO PUSH2 0x490 JUMPI PUSH2 0x48F PUSH2 0x3FD JUMP JUMPDEST JUMPDEST DUP4 JUMPDEST DUP2 DUP2 LT ISZERO PUSH2 0x4B9 JUMPI DUP1 PUSH2 0x4A5 DUP9 DUP3 PUSH2 0x447 JUMP JUMPDEST DUP5 MSTORE PUSH1 0x20 DUP5 ADD SWAP4 POP POP PUSH1 0x20 DUP2 ADD SWAP1 POP PUSH2 0x492 JUMP JUMPDEST POP POP POP SWAP4 SWAP3 POP POP POP JUMP JUMPDEST PUSH0 DUP3 PUSH1 0x1F DUP4 ADD SLT PUSH2 0x4D7 JUMPI PUSH2 0x4D6 PUSH2 0x346 JUMP JUMPDEST JUMPDEST DUP2 MLOAD PUSH2 0x4E7 DUP5 DUP3 PUSH1 0x20 DUP7 ADD PUSH2 0x45B JUMP JUMPDEST SWAP2 POP POP SWAP3 SWAP2 POP POP JUMP JUMPDEST PUSH0 PUSH8 0xFFFFFFFFFFFFFFFF DUP3 GT ISZERO PUSH2 0x50A JUMPI PUSH2 0x509 PUSH2 0x35A JUMP JUMPDEST JUMPDEST PUSH1 0x20 DUP3 MUL SWAP1 POP PUSH1 0x20 DUP2 ADD SWAP1 POP SWAP2 SWAP1 POP JUMP JUMPDEST PUSH0 DUP2 SWAP1 POP SWAP2 SWAP1 POP JUMP JUMPDEST PUSH2 0x52D DUP2 PUSH2 0x51B JUMP JUMPDEST DUP2 EQ PUSH2 0x537 JUMPI PUSH0 DUP1 REVERT JUMPDEST POP JUMP JUMPDEST PUSH0 DUP2 MLOAD SWAP1 POP PUSH2 0x548 DUP2 PUSH2 0x524 JUMP JUMPDEST SWAP3 SWAP2 POP POP JUMP JUMPDEST PUSH0 PUSH2 0x560 PUSH2 0x55B DUP5 PUSH2 0x4F0 JUMP JUMPDEST PUSH2 0x3B8 JUMP JUMPDEST SWAP1 POP DUP1 DUP4 DUP3 MSTORE PUSH1 0x20 DUP3 ADD SWAP1 POP PUSH1 0x20 DUP5 MUL DUP4 ADD DUP6 DUP2 GT ISZERO PUSH2 0x583 JUMPI PUSH2 0x582 PUSH2 0x3FD JUMP JUMPDEST JUMPDEST DUP4 JUMPDEST DUP2 DUP2 LT ISZERO PUSH2 0x5AC JUMPI DUP1 PUSH2 0x598 DUP9 DUP3 PUSH2 0x53A JUMP JUMPDEST DUP5 MSTORE PUSH1 0x20 DUP5 ADD SWAP4 POP POP PUSH1 0x20 DUP2 ADD SWAP1 POP PUSH2 0x585 JUMP JUMPDEST POP POP POP SWAP4 SWAP3 POP POP POP JUMP JUMPDEST PUSH0 DUP3 PUSH1 0x1F DUP4 ADD SLT PUSH2 0x5CA JUMPI PUSH2 0x5C9 PUSH2 0x346 JUMP JUMPDEST JUMPDEST DUP2 MLOAD PUSH2 0x5DA DUP5 DUP3 PUSH1 0x20 DUP7 ADD PUSH2 0x54E JUMP JUMPDEST SWAP2 POP POP SWAP3 SWAP2 POP POP JUMP JUMPDEST PUSH0 DUP1 PUSH1 0x40 DUP4 DUP6 SUB SLT ISZERO PUSH2 0x5F9 JUMPI PUSH2 0x5F8 PUSH2 0x33E JUMP JUMPDEST JUMPDEST PUSH0 DUP4 ADD MLOAD PUSH8 0xFFFFFFFFFFFFFFFF DUP2 GT ISZERO PUSH2 0x616 JUMPI PUSH2 0x615 PUSH2 0x342 JUMP JUMPDEST JUMPDEST PUSH2 0x622 DUP6 DUP3 DUP7 ADD PUSH2 0x4C3 JUMP JUMPDEST SWAP3 POP POP PUSH1 0x20 DUP4 ADD MLOAD PUSH8 0xFFFFFFFFFFFFFFFF DUP2 GT ISZERO PUSH2 0x643 JUMPI PUSH2 0x642 PUSH2 0x342 JUMP JUMPDEST JUMPDEST PUSH2 0x64F DUP6 DUP3 DUP7 ADD PUSH2 0x5B6 JUMP JUMPDEST SWAP2 POP POP SWAP3 POP SWAP3 SWAP1 POP JUMP JUMPDEST PUSH0 DUP3 DUP3 MSTORE PUSH1 0x20 DUP3 ADD SWAP1 POP SWAP3 SWAP2 POP POP JUMP JUMPDEST PUSH32 0x70617965657320616E6420736861726573206C656E677468206D69736D617463 PUSH0 DUP3 ADD MSTORE PUSH32 0x6800000000000000000000000000000000000000000000000000000000000000 PUSH1 0x20 DUP3 ADD MSTORE POP JUMP JUMPDEST PUSH0 PUSH2 0x6C3 PUSH1 0x21 DUP4 PUSH2 0x659 JUMP JUMPDEST SWAP2 POP PUSH2 0x6CE DUP3 PUSH2 0x669 JUMP JUMPDEST PUSH1 0x40 DUP3 ADD SWAP1 POP SWAP2 SWAP1 POP JUMP JUMPDEST PUSH0 PUSH1 0x20 DUP3 ADD SWAP1 POP DUP2 DUP2 SUB PUSH0 DUP4 ADD MSTORE PUSH2 0x6F0 DUP2 PUSH2 0x6B7 JUMP JUMPDEST SWAP1 POP SWAP2 SWAP1 POP JUMP JUMPDEST PUSH32 0x6E6F207061796565730000000000000000000000000000000000000000000000 PUSH0 DUP3 ADD MSTORE POP JUMP JUMPDEST PUSH0 PUSH2 0x72B PUSH1 0x9 DUP4 PUSH2 0x659 JUMP JUMPDEST SWAP2 POP PUSH2 0x736 DUP3 PUSH2 0x6F7 JUMP JUMPDEST PUSH1 0x20 DUP3 ADD SWAP1 POP SWAP2 SWAP1 POP JUMP JUMPDEST PUSH0 PUSH1 0x20 DUP3 ADD SWAP1 POP DUP2 DUP2 SUB PUSH0 DUP4 ADD MSTORE PUSH2 0x758 DUP2 PUSH2 0x71F JUMP JUMPDEST SWAP1 POP SWAP2 SWAP1 POP JUMP JUMPDEST PUSH32 0x4E487B7100000000000000000000000000000000000000000000000000000000 PUSH0 MSTORE PUSH1 0x32 PUSH1 0x4 MSTORE PUSH1 0x24 PUSH0 REVERT JUMPDEST PUSH32 0x5061796D656E7453706C69747465723A206163636F756E742069732074686520 PUSH0 DUP3 ADD MSTORE PUSH32 0x7A65726F20616464726573730000000000000000000000000000000000000000 PUSH1 0x20 DUP3 ADD MSTORE POP JUMP JUMPDEST PUSH0 PUSH2 0x7E6 PUSH1 0x2C DUP4 PUSH2 0x659 JUMP JUMPDEST SWAP2 POP PUSH2 0x7F1 DUP3 PUSH2 0x78C JUMP JUMPDEST PUSH1 0x40 DUP3 ADD SWAP1 POP SWAP2 SWAP1 POP JUMP JUMPDEST PUSH0 PUSH1 0x20 DUP3 ADD SWAP1 POP DUP2 DUP2 SUB PUSH0 DUP4 ADD MSTORE PUSH2 0x813 DUP2 PUSH2 0x7DA JUMP JUMPDEST SWAP1 POP SWAP2 SWAP1 POP JUMP JUMPDEST PUSH32 0x5061796D656E7453706C69747465723A20736861726573206172652030000000 PUSH0 DUP3 ADD MSTORE POP JUMP JUMPDEST PUSH0 PUSH2 0x84E PUSH1 0x1D DUP4 PUSH2 0x659 JUMP JUMPDEST SWAP2 POP PUSH2 0x859 DUP3 PUSH2 0x81A JUMP JUMPDEST PUSH1 0x20 DUP3 ADD SWAP1 POP SWAP2 SWAP1 POP JUMP JUMPDEST PUSH0 PUSH1 0x20 DUP3 ADD SWAP1 POP DUP2 DUP2 SUB PUSH0 DUP4 ADD MSTORE PUSH2 0x87B DUP2 PUSH2 0x842 JUMP JUMPDEST SWAP1 POP SWAP2 SWAP1 POP JUMP JUMPDEST PUSH32 0x5061796D656E7453706C69747465723A206163636F756E7420616C7265616479 PUSH0 DUP3 ADD MSTORE PUSH32 0x2068617320736861726573000000000000000000000000000000000000000000 PUSH1 0x20 DUP3 ADD MSTORE POP JUMP JUMPDEST PUSH0 PUSH2 0x8DC PUSH1 0x2B DUP4 PUSH2 0x659 JUMP JUMPDEST SWAP2 POP PUSH2 0x8E7 DUP3 PUSH2 0x882 JUMP JUMPDEST PUSH1 0x40 DUP3 ADD SWAP1 POP SWAP2 SWAP1 POP JUMP JUMPDEST PUSH0 PUSH1 0x20 DUP3 ADD SWAP1 POP DUP2 DUP2 SUB PUSH0 DUP4 ADD MSTORE PUSH2 0x909 DUP2 PUSH2 0x8D0 JUMP JUMPDEST SWAP1 POP SWAP2 SWAP1 POP JUMP JUMPDEST PUSH32 0x4E487B7100000000000000000000000000000000000000000000000000000000 PUSH0 MSTORE PUSH1 0x11 PUSH1 0x4 MSTORE PUSH1 0x24 PUSH0 REVERT JUMPDEST PUSH0 PUSH2 0x947 DUP3 PUSH2 0x51B JUMP JUMPDEST SWAP2 POP PUSH2 0x952 DUP4 PUSH2 0x51B JUMP JUMPDEST SWAP3 POP DUP3 DUP3 ADD SWAP1 POP DUP1 DUP3 GT ISZERO PUSH2 0x96A JUMPI PUSH2 0x969 PUSH2 0x910 JUMP JUMPDEST JUMPDEST SWAP3 SWAP2 POP POP JUMP JUMPDEST PUSH2 0x979 DUP2 PUSH2 0x420 JUMP JUMPDEST DUP3 MSTORE POP POP JUMP JUMPDEST PUSH2 0x988 DUP2 PUSH2 0x51B JUMP JUMPDEST DUP3 MSTORE POP POP JUMP JUMPDEST PUSH0 PUSH1 0x40 DUP3 ADD SWAP1 POP PUSH2 0x9A1 PUSH0 DUP4 ADD DUP6 PUSH2 0x970 JUMP JUMPDEST PUSH2 0x9AE PUSH1 0x20 DUP4 ADD DUP5 PUSH2 0x97F JUMP JUMPDEST SWAP4 SWAP3 POP POP POP JUMP JUMPDEST PUSH2 0xA88 DUP1 PUSH2 0x9C2 PUSH0 CODECOPY PUSH0 RETURN INVALID PUSH1 0x80 PUSH1 0x40 MSTORE PUSH1 0x4 CALLDATASIZE LT PUSH2 0x7E JUMPI PUSH0 CALLDATALOAD PUSH1 0xE0 SHR DUP1 PUSH4 0x9852595C GT PUSH2 0x4D JUMPI DUP1 PUSH4 0x9852595C EQ PUSH2 0x18C JUMPI DUP1 PUSH4 0xA3F8EACE EQ PUSH2 0x1C8 JUMPI DUP1 PUSH4 0xCE7C2AC2 EQ PUSH2 0x204 JUMPI DUP1 PUSH4 0xE33B7DE3 EQ PUSH2 0x240 JUMPI PUSH2 0xBE JUMP JUMPDEST DUP1 PUSH4 0x19165587 EQ PUSH2 0xC2 JUMPI DUP1 PUSH4 0x1B51003D EQ PUSH2 0xEA JUMPI DUP1 PUSH4 0x3A98EF39 EQ PUSH2 0x126 JUMPI DUP1 PUSH4 0x63037B0C EQ PUSH2 0x150 JUMPI PUSH2 0xBE JUMP JUMPDEST CALLDATASIZE PUSH2 0xBE JUMPI PUSH32 0x6EF95F06320E7A25A04A175CA677B7052BDD97131872C2192525A629F51BE770 CALLER CALLVALUE PUSH1 0x40 MLOAD PUSH2 0xB4 SWAP3 SWAP2 SWAP1 PUSH2 0x5B6 JUMP JUMPDEST PUSH1 0x40 MLOAD DUP1 SWAP2 SUB SWAP1 LOG1 STOP JUMPDEST PUSH0 DUP1 REVERT JUMPDEST CALLVALUE DUP1 ISZERO PUSH2 0xCD JUMPI PUSH0 DUP1 REVERT JUMPDEST POP PUSH2 0xE8 PUSH1 0x4 DUP1 CALLDATASIZE SUB DUP2 ADD SWAP1 PUSH2 0xE3 SWAP2 SWAP1 PUSH2 0x61C JUMP JUMPDEST PUSH2 0x26A JUMP JUMPDEST STOP JUMPDEST CALLVALUE DUP1 ISZERO PUSH2 0xF5 JUMPI PUSH0 DUP1 REVERT JUMPDEST POP PUSH2 0x110 PUSH1 0x4 DUP1 CALLDATASIZE SUB DUP2 ADD SWAP1 PUSH2 0x10B SWAP2 SWAP1 PUSH2 0x69B JUMP JUMPDEST PUSH2 0x423 JUMP JUMPDEST PUSH1 0x40 MLOAD PUSH2 0x11D SWAP2 SWAP1 PUSH2 0x6EB JUMP JUMPDEST PUSH1 0x40 MLOAD DUP1 SWAP2 SUB SWAP1 RETURN JUMPDEST CALLVALUE DUP1 ISZERO PUSH2 0x131 JUMPI PUSH0 DUP1 REVERT JUMPDEST POP PUSH2 0x13A PUSH2 0x48D JUMP JUMPDEST PUSH1 0x40 MLOAD PUSH2 0x147 SWAP2 SWAP1 PUSH2 0x6EB JUMP JUMPDEST PUSH1 0x40 MLOAD DUP1 SWAP2 SUB SWAP1 RETURN JUMPDEST CALLVALUE DUP1 ISZERO PUSH2 0x15B JUMPI PUSH0 DUP1 REVERT JUMPDEST POP PUSH2 0x176 PUSH1 0x4 DUP1 CALLDATASIZE SUB DUP2 ADD SWAP1 PUSH2 0x171 SWAP2 SWAP1 PUSH2 0x704 JUMP JUMPDEST PUSH2 0x492 JUMP JUMPDEST PUSH1 0x40 MLOAD PUSH2 0x183 SWAP2 SWAP1 PUSH2 0x72F JUMP JUMPDEST PUSH1 0x40 MLOAD DUP1 SWAP2 SUB SWAP1 RETURN JUMPDEST CALLVALUE DUP1 ISZERO PUSH2 0x197 JUMPI PUSH0 DUP1 REVERT JUMPDEST POP PUSH2 0x1B2 PUSH1 0x4 DUP1 CALLDATASIZE SUB DUP2 ADD SWAP1 PUSH2 0x1AD SWAP2 SWAP1 PUSH2 0x748 JUMP JUMPDEST PUSH2 0x4CD JUMP JUMPDEST PUSH1 0x40 MLOAD PUSH2 0x1BF SWAP2 SWAP1 PUSH2 0x6EB JUMP JUMPDEST PUSH1 0x40 MLOAD DUP1 SWAP2 SUB SWAP1 RETURN JUMPDEST CALLVALUE DUP1 ISZERO PUSH2 0x1D3 JUMPI PUSH0 DUP1 REVERT JUMPDEST POP PUSH2 0x1EE PUSH1 0x4 DUP1 CALLDATASIZE SUB DUP2 ADD SWAP1 PUSH2 0x1E9 SWAP2 SWAP1 PUSH2 0x748 JUMP JUMPDEST PUSH2 0x4E2 JUMP JUMPDEST PUSH1 0x40 MLOAD PUSH2 0x1FB SWAP2 SWAP1 PUSH2 0x6EB JUMP JUMPDEST PUSH1 0x40 MLOAD DUP1 SWAP2 SUB SWAP1 RETURN JUMPDEST CALLVALUE DUP1 ISZERO PUSH2 0x20F JUMPI PUSH0 DUP1 REVERT JUMPDEST POP PUSH2 0x22A PUSH1 0x4 DUP1 CALLDATASIZE SUB DUP2 ADD SWAP1 PUSH2 0x225 SWAP2 SWAP1 PUSH2 0x748 JUMP JUMPDEST PUSH2 0x544 JUMP JUMPDEST PUSH1 0x40 MLOAD PUSH2 0x237 SWAP2 SWAP1 PUSH2 0x6EB JUMP JUMPDEST PUSH1 0x40 MLOAD DUP1 SWAP2 SUB SWAP1 RETURN JUMPDEST CALLVALUE DUP1 ISZERO PUSH2 0x24B JUMPI PUSH0 DUP1 REVERT JUMPDEST POP PUSH2 0x254 PUSH2 0x559 JUMP JUMPDEST PUSH1 0x40 MLOAD PUSH2 0x261 SWAP2 SWAP1 PUSH2 0x6EB JUMP JUMPDEST PUSH1 0x40 MLOAD DUP1 SWAP2 SUB SWAP1 RETURN JUMPDEST PUSH0 PUSH1 0x2 PUSH0 DUP4 PUSH20 0xFFFFFFFFFFFFFFFFFFFFFFFFFFFFFFFFFFFFFFFF AND PUSH20 0xFFFFFFFFFFFFFFFFFFFFFFFFFFFFFFFFFFFFFFFF AND DUP2 MSTORE PUSH1 0x20 ADD SWAP1 DUP2 MSTORE PUSH1 0x20 ADD PUSH0 KECCAK256 SLOAD GT PUSH2 0x2E9 JUMPI PUSH1 0x40 MLOAD PUSH32 0x8C379A000000000000000000000000000000000000000000000000000000000 DUP2 MSTORE PUSH1 0x4 ADD PUSH2 0x2E0 SWAP1 PUSH2 0x7F3 JUMP JUMPDEST PUSH1 0x40 MLOAD DUP1 SWAP2 SUB SWAP1 REVERT JUMPDEST PUSH0 PUSH2 0x2F3 DUP3 PUSH2 0x4E2 JUMP JUMPDEST SWAP1 POP PUSH0 DUP2 SUB PUSH2 0x337 JUMPI PUSH1 0x40 MLOAD PUSH32 0x8C379A000000000000000000000000000000000000000000000000000000000 DUP2 MSTORE PUSH1 0x4 ADD PUSH2 0x32E SWAP1 PUSH2 0x881 JUMP JUMPDEST PUSH1 0x40 MLOAD DUP1 SWAP2 SUB SWAP1 REVERT JUMPDEST DUP1 PUSH1 0x1 PUSH0 DUP3 DUP3 SLOAD PUSH2 0x348 SWAP2 SWAP1 PUSH2 0x8CC JUMP JUMPDEST SWAP3 POP POP DUP2 SWAP1 SSTORE POP DUP1 PUSH1 0x3 PUSH0 DUP5 PUSH20 0xFFFFFFFFFFFFFFFFFFFFFFFFFFFFFFFFFFFFFFFF AND PUSH20 0xFFFFFFFFFFFFFFFFFFFFFFFFFFFFFFFFFFFFFFFF AND DUP2 MSTORE PUSH1 0x20 ADD SWAP1 DUP2 MSTORE PUSH1 0x20 ADD PUSH0 KECCAK256 PUSH0 DUP3 DUP3 SLOAD PUSH2 0x39B SWAP2 SWAP1 PUSH2 0x8CC JUMP JUMPDEST SWAP3 POP POP DUP2 SWAP1 SSTORE POP DUP2 PUSH20 0xFFFFFFFFFFFFFFFFFFFFFFFFFFFFFFFFFFFFFFFF AND PUSH2 0x8FC DUP3 SWAP1 DUP2 ISZERO MUL SWAP1 PUSH1 0x40 MLOAD PUSH0 PUSH1 0x40 MLOAD DUP1 DUP4 SUB DUP2 DUP6 DUP9 DUP9 CALL SWAP4 POP POP POP POP ISZERO DUP1 ISZERO PUSH2 0x3E5 JUMPI RETURNDATASIZE PUSH0 DUP1 RETURNDATACOPY RETURNDATASIZE PUSH0 REVERT JUMPDEST POP PUSH32 0xDF20FD1E76BC69D672E4814FAFB2C449BBA3A5369D8359ADF9E05E6FDE87B056 DUP3 DUP3 PUSH1 0x40 MLOAD PUSH2 0x417 SWAP3 SWAP2 SWAP1 PUSH2 0x95A JUMP JUMPDEST PUSH1 0x40 MLOAD DUP1 SWAP2 SUB SWAP1 LOG1 POP POP JUMP JUMPDEST PUSH0 DUP2 PUSH0 SLOAD PUSH1 0x2 PUSH0 DUP8 PUSH20 0xFFFFFFFFFFFFFFFFFFFFFFFFFFFFFFFFFFFFFFFF AND PUSH20 0xFFFFFFFFFFFFFFFFFFFFFFFFFFFFFFFFFFFFFFFF AND DUP2 MSTORE PUSH1 0x20 ADD SWAP1 DUP2 MSTORE PUSH1 0x20 ADD PUSH0 KECCAK256 SLOAD DUP6 PUSH2 0x470 SWAP2 SWAP1 PUSH2 0x981 JUMP JUMPDEST PUSH2 0x47A SWAP2 SWAP1 PUSH2 0x9EF JUMP JUMPDEST PUSH2 0x484 SWAP2 SWAP1 PUSH2 0xA1F JUMP JUMPDEST SWAP1 POP SWAP4 SWAP3 POP POP POP JUMP JUMPDEST PUSH0 SLOAD DUP2 JUMP JUMPDEST PUSH1 0x4 DUP2 DUP2 SLOAD DUP2 LT PUSH2 0x4A1 JUMPI PUSH0 DUP1 REVERT JUMPDEST SWAP1 PUSH0 MSTORE PUSH1 0x20 PUSH0 KECCAK256 ADD PUSH0 SWAP2 POP SLOAD SWAP1 PUSH2 0x100 EXP SWAP1 DIV PUSH20 0xFFFFFFFFFFFFFFFFFFFFFFFFFFFFFFFFFFFFFFFF AND DUP2 JUMP JUMPDEST PUSH1 0x3 PUSH1 0x20 MSTORE DUP1 PUSH0 MSTORE PUSH1 0x40 PUSH0 KECCAK256 PUSH0 SWAP2 POP SWAP1 POP SLOAD DUP2 JUMP JUMPDEST PUSH0 DUP1 PUSH1 0x1 SLOAD SELFBALANCE PUSH2 0x4F2 SWAP2 SWAP1 PUSH2 0x8CC JUMP JUMPDEST SWAP1 POP PUSH2 0x53C DUP4 DUP3 PUSH1 0x3 PUSH0 DUP8 PUSH20 0xFFFFFFFFFFFFFFFFFFFFFFFFFFFFFFFFFFFFFFFF AND PUSH20 0xFFFFFFFFFFFFFFFFFFFFFFFFFFFFFFFFFFFFFFFF AND DUP2 MSTORE PUSH1 0x20 ADD SWAP1 DUP2 MSTORE PUSH1 0x20 ADD PUSH0 KECCAK256 SLOAD PUSH2 0x423 JUMP JUMPDEST SWAP2 POP POP SWAP2 SWAP1 POP JUMP JUMPDEST PUSH1 0x2 PUSH1 0x20 MSTORE DUP1 PUSH0 MSTORE PUSH1 0x40 PUSH0 KECCAK256 PUSH0 SWAP2 POP SWAP1 POP SLOAD DUP2 JUMP JUMPDEST PUSH1 0x1 SLOAD DUP2 JUMP JUMPDEST PUSH0 PUSH20 0xFFFFFFFFFFFFFFFFFFFFFFFFFFFFFFFFFFFFFFFF DUP3 AND SWAP1 POP SWAP2 SWAP1 POP JUMP JUMPDEST PUSH0 PUSH2 0x588 DUP3 PUSH2 0x55F JUMP JUMPDEST SWAP1 POP SWAP2 SWAP1 POP JUMP JUMPDEST PUSH2 0x598 DUP2 PUSH2 0x57E JUMP JUMPDEST DUP3 MSTORE POP POP JUMP JUMPDEST PUSH0 DUP2 SWAP1 POP SWAP2 SWAP1 POP JUMP JUMPDEST PUSH2 0x5B0 DUP2 PUSH2 0x59E JUMP JUMPDEST DUP3 MSTORE POP POP JUMP JUMPDEST PUSH0 PUSH1 0x40 DUP3 ADD SWAP1 POP PUSH2 0x5C9 PUSH0 DUP4 ADD DUP6 PUSH2 0x58F JUMP JUMPDEST PUSH2 0x5D6 PUSH1 0x20 DUP4 ADD DUP5 PUSH2 0x5A7 JUMP JUMPDEST SWAP4 SWAP3 POP POP POP JUMP JUMPDEST PUSH0 DUP1 REVERT JUMPDEST PUSH0 PUSH2 0x5EB DUP3 PUSH2 0x55F JUMP JUMPDEST SWAP1 POP SWAP2 SWAP1 POP JUMP JUMPDEST PUSH2 0x5FB DUP2 PUSH2 0x5E1 JUMP JUMPDEST DUP2 EQ PUSH2 0x605 JUMPI PUSH0 DUP1 REVERT JUMPDEST POP JUMP JUMPDEST PUSH0 DUP2 CALLDATALOAD SWAP1 POP PUSH2 0x616 DUP2 PUSH2 0x5F2 JUMP JUMPDEST SWAP3 SWAP2 POP POP JUMP JUMPDEST PUSH0 PUSH1 0x20 DUP3 DUP5 SUB SLT ISZERO PUSH2 0x631 JUMPI PUSH2 0x630 PUSH2 0x5DD JUMP JUMPDEST JUMPDEST PUSH0 PUSH2 0x63E DUP5 DUP3 DUP6 ADD PUSH2 0x608 JUMP JUMPDEST SWAP2 POP POP SWAP3 SWAP2 POP POP JUMP JUMPDEST PUSH2 0x650 DUP2 PUSH2 0x57E JUMP JUMPDEST DUP2 EQ PUSH2 0x65A JUMPI PUSH0 DUP1 REVERT JUMPDEST POP JUMP JUMPDEST PUSH0 DUP2 CALLDATALOAD SWAP1 POP PUSH2 0x66B DUP2 PUSH2 0x647 JUMP JUMPDEST SWAP3 SWAP2 POP POP JUMP JUMPDEST PUSH2 0x67A DUP2 PUSH2 0x59E JUMP JUMPDEST DUP2 EQ PUSH2 0x684 JUMPI PUSH0 DUP1 REVERT JUMPDEST POP JUMP JUMPDEST PUSH0 DUP2 CALLDATALOAD SWAP1 POP PUSH2 0x695 DUP2 PUSH2 0x671 JUMP JUMPDEST SWAP3 SWAP2 POP POP JUMP JUMPDEST PUSH0 DUP1 PUSH0 PUSH1 0x60 DUP5 DUP7 SUB SLT ISZERO PUSH2 0x6B2 JUMPI PUSH2 0x6B1 PUSH2 0x5DD JUMP JUMPDEST JUMPDEST PUSH0 PUSH2 0x6BF DUP7 DUP3 DUP8 ADD PUSH2 0x65D JUMP JUMPDEST SWAP4 POP POP PUSH1 0x20 PUSH2 0x6D0 DUP7 DUP3 DUP8 ADD PUSH2 0x687 JUMP JUMPDEST SWAP3 POP POP PUSH1 0x40 PUSH2 0x6E1 DUP7 DUP3 DUP8 ADD PUSH2 0x687 JUMP JUMPDEST SWAP2 POP POP SWAP3 POP SWAP3 POP SWAP3 JUMP JUMPDEST PUSH0 PUSH1 0x20 DUP3 ADD SWAP1 POP PUSH2 0x6FE PUSH0 DUP4 ADD DUP5 PUSH2 0x5A7 JUMP JUMPDEST SWAP3 SWAP2 POP POP JUMP JUMPDEST PUSH0 PUSH1 0x20 DUP3 DUP5 SUB SLT ISZERO PUSH2 0x719 JUMPI PUSH2 0x718 PUSH2 0x5DD JUMP JUMPDEST JUMPDEST PUSH0 PUSH2 0x726 DUP5 DUP3 DUP6 ADD PUSH2 0x687 JUMP JUMPDEST SWAP2 POP POP SWAP3 SWAP2 POP POP JUMP JUMPDEST PUSH0 PUSH1 0x20 DUP3 ADD SWAP1 POP PUSH2 0x742 PUSH0 DUP4 ADD DUP5 PUSH2 0x58F JUMP JUMPDEST SWAP3 SWAP2 POP POP JUMP JUMPDEST PUSH0 PUSH1 0x20 DUP3 DUP5 SUB SLT ISZERO PUSH2 0x75D JUMPI PUSH2 0x75C PUSH2 0x5DD JUMP JUMPDEST JUMPDEST PUSH0 PUSH2 0x76A DUP5 DUP3 DUP6 ADD PUSH2 0x65D JUMP JUMPDEST SWAP2 POP POP SWAP3 SWAP2 POP POP JUMP JUMPDEST PUSH0 DUP3 DUP3 MSTORE PUSH1 0x20 DUP3 ADD SWAP1 POP SWAP3 SWAP2 POP POP JUMP JUMPDEST PUSH32 0x5061796D656E7453706C69747465723A206163636F756E7420686173206E6F20 PUSH0 DUP3 ADD MSTORE PUSH32 0x7368617265730000000000000000000000000000000000000000000000000000 PUSH1 0x20 DUP3 ADD MSTORE POP JUMP JUMPDEST PUSH0 PUSH2 0x7DD PUSH1 0x26 DUP4 PUSH2 0x773 JUMP JUMPDEST SWAP2 POP PUSH2 0x7E8 DUP3 PUSH2 0x783 JUMP JUMPDEST PUSH1 0x40 DUP3 ADD SWAP1 POP SWAP2 SWAP1 POP JUMP JUMPDEST PUSH0 PUSH1 0x20 DUP3 ADD SWAP1 POP DUP2 DUP2 SUB PUSH0 DUP4 ADD MSTORE PUSH2 0x80A DUP2 PUSH2 0x7D1 JUMP JUMPDEST SWAP1 POP SWAP2 SWAP1 POP JUMP JUMPDEST PUSH32 0x5061796D656E7453706C69747465723A206163636F756E74206973206E6F7420 PUSH0 DUP3 ADD MSTORE PUSH32 0x647565207061796D656E74000000000000000000000000000000000000000000 PUSH1 0x20 DUP3 ADD MSTORE POP JUMP JUMPDEST PUSH0 PUSH2 0x86B PUSH1 0x2B DUP4 PUSH2 0x773 JUMP JUMPDEST SWAP2 POP PUSH2 0x876 DUP3 PUSH2 0x811 JUMP JUMPDEST PUSH1 0x40 DUP3 ADD SWAP1 POP SWAP2 SWAP1 POP JUMP JUMPDEST PUSH0 PUSH1 0x20 DUP3 ADD SWAP1 POP DUP2 DUP2 SUB PUSH0 DUP4 ADD MSTORE PUSH2 0x898 DUP2 PUSH2 0x85F JUMP JUMPDEST SWAP1 POP SWAP2 SWAP1 POP JUMP JUMPDEST PUSH32 0x4E487B7100000000000000000000000000000000000000000000000000000000 PUSH0 MSTORE PUSH1 0x11 PUSH1 0x4 MSTORE PUSH1 0x24 PUSH0 REVERT JUMPDEST PUSH0 PUSH2 0x8D6 DUP3 PUSH2 0x59E JUMP JUMPDEST SWAP2 POP PUSH2 0x8E1 DUP4 PUSH2 0x59E JUMP JUMPDEST SWAP3 POP DUP3 DUP3 ADD SWAP1 POP DUP1 DUP3 GT ISZERO PUSH2 0x8F9 JUMPI PUSH2 0x8F8 PUSH2 0x89F JUMP JUMPDEST JUMPDEST SWAP3 SWAP2 POP POP JUMP JUMPDEST PUSH0 DUP2 SWAP1 POP SWAP2 SWAP1 POP JUMP JUMPDEST PUSH0 PUSH2 0x922 PUSH2 0x91D PUSH2 0x918 DUP5 PUSH2 0x55F JUMP JUMPDEST PUSH2 0x8FF JUMP JUMPDEST PUSH2 0x55F JUMP JUMPDEST SWAP1 POP SWAP2 SWAP1 POP JUMP JUMPDEST PUSH0 PUSH2 0x933 DUP3 PUSH2 0x908 JUMP JUMPDEST SWAP1 POP SWAP2 SWAP1 POP JUMP JUMPDEST PUSH0 PUSH2 0x944 DUP3 PUSH2 0x929 JUMP JUMPDEST SWAP1 POP SWAP2 SWAP1 POP JUMP JUMPDEST PUSH2 0x954 DUP2 PUSH2 0x93A JUMP JUMPDEST DUP3 MSTORE POP POP JUMP JUMPDEST PUSH0 PUSH1 0x40 DUP3 ADD SWAP1 POP PUSH2 0x96D PUSH0 DUP4 ADD DUP6 PUSH2 0x94B JUMP JUMPDEST PUSH2 0x97A PUSH1 0x20 DUP4 ADD DUP5 PUSH2 0x5A7 JUMP JUMPDEST SWAP4 SWAP3 POP POP POP JUMP JUMPDEST PUSH0 PUSH2 0x98B DUP3 PUSH2 0x59E JUMP JUMPDEST SWAP2 POP PUSH2 0x996 DUP4 PUSH2 0x59E JUMP JUMPDEST SWAP3 POP DUP3 DUP3 MUL PUSH2 0x9A4 DUP2 PUSH2 0x59E JUMP JUMPDEST SWAP2 POP DUP3 DUP3 DIV DUP5 EQ DUP4 ISZERO OR PUSH2 0x9BB JUMPI PUSH2 0x9BA PUSH2 0x89F JUMP JUMPDEST JUMPDEST POP SWAP3 SWAP2 POP POP JUMP JUMPDEST PUSH32 0x4E487B7100000000000000000000000000000000000000000000000000000000 PUSH0 MSTORE PUSH1 0x12 PUSH1 0x4 MSTORE PUSH1 0x24 PUSH0 REVERT JUMPDEST PUSH0 PUSH2 0x9F9 DUP3 PUSH2 0x59E JUMP JUMPDEST SWAP2 POP PUSH2 0xA04 DUP4 PUSH2 0x59E JUMP JUMPDEST SWAP3 POP DUP3 PUSH2 0xA14 JUMPI PUSH2 0xA13 PUSH2 0x9C2 JUMP JUMPDEST JUMPDEST DUP3 DUP3 DIV SWAP1 POP SWAP3 SWAP2 POP POP JUMP JUMPDEST PUSH0 PUSH2 0xA29 DUP3 PUSH2 0x59E JUMP JUMPDEST SWAP2 POP PUSH2 0xA34 DUP4 PUSH2 0x59E JUMP JUMPDEST SWAP3 POP DUP3 DUP3 SUB SWAP1 POP DUP2 DUP2 GT ISZERO PUSH2 0xA4C JUMPI PUSH2 0xA4B PUSH2 0x89F JUMP JUMPDEST JUMPDEST SWAP3 SWAP2 POP POP JUMP INVALID LOG2 PUSH5 0x6970667358 0x22 SLT KECCAK256 0x23 MUL CALL SUB MSTORE AND PUSH1 0x2D MLOAD PUSH23 0xCAF700F1DA011B2CD5EBC49D890321BC87E08DC8BDDB64 PUSH20 0x6F6C634300081A00330000000000000000000000 "
				},
				"gasEstimates": {
					"creation": {
						"codeDepositCost": "539200",
						"executionCost": "infinite",
						"totalCost": "infinite"
					},
					"external": {
						"payees(uint256)": "5011",
						"pendingPayment(address,uint256,uint256)": "infinite",
						"releasable(address)": "infinite",
						"release(address)": "infinite",
						"released(address)": "2802",
						"shares(address)": "2846",
						"totalReleased()": "2491",
						"totalShares()": "2469"
					},
					"internal": {
						"_addPayee(address,uint256)": "infinite"
					}
				},
				"methodIdentifiers": {
					"payees(uint256)": "63037b0c",
					"pendingPayment(address,uint256,uint256)": "1b51003d",
					"releasable(address)": "a3f8eace",
					"release(address)": "19165587",
					"released(address)": "9852595c",
					"shares(address)": "ce7c2ac2",
					"totalReleased()": "e33b7de3",
					"totalShares()": "3a98ef39"
				}
			},
			"storageLayout": {
				"storage": [
					{
						"astId": 21,
						"contract": "PaymentSplit/PaymentSplit.sol:PaymentSplit",
						"label": "totalShares",
						"offset": 0,
						"slot": "0",
						"type": "t_uint256"
					},
					{
						"astId": 23,
						"contract": "PaymentSplit/PaymentSplit.sol:PaymentSplit",
						"label": "totalReleased",
						"offset": 0,
						"slot": "1",
						"type": "t_uint256"
					},
					{
						"astId": 27,
						"contract": "PaymentSplit/PaymentSplit.sol:PaymentSplit",
						"label": "shares",
						"offset": 0,
						"slot": "2",
						"type": "t_mapping(t_address,t_uint256)"
					},
					{
						"astId": 31,
						"contract": "PaymentSplit/PaymentSplit.sol:PaymentSplit",
						"label": "released",
						"offset": 0,
						"slot": "3",
						"type": "t_mapping(t_address,t_uint256)"
					},
					{
						"astId": 34,
						"contract": "PaymentSplit/PaymentSplit.sol:PaymentSplit",
						"label": "payees",
						"offset": 0,
						"slot": "4",
						"type": "t_array(t_address)dyn_storage"
					}
				],
				"types": {
					"t_address": {
						"encoding": "inplace",
						"label": "address",
						"numberOfBytes": "20"
					},
					"t_array(t_address)dyn_storage": {
						"base": "t_address",
						"encoding": "dynamic_array",
						"label": "address[]",
						"numberOfBytes": "32"
					},
					"t_mapping(t_address,t_uint256)": {
						"encoding": "mapping",
						"key": "t_address",
						"label": "mapping(address => uint256)",
						"numberOfBytes": "32",
						"value": "t_uint256"
					},
					"t_uint256": {
						"encoding": "inplace",
						"label": "uint256",
						"numberOfBytes": "32"
					}
				}
			},
			"userdoc": {
				"kind": "user",
				"methods": {},
				"version": 1
			}
		}
	}
}